:100000000C94E2090C942B0A0C942B0A0C942B0AE6
:100010000C942B0A0C942B0A0C942B0A0C942B0A8C
:100020000C942B0A0C942B0A0C940A250C94E125B1
:100030000C94151C0C942B0A0C942B0A0C942B0A70
:100040000C942B0A0C942B0A0C942B0A0C942B0A5C
:100050000C942B0A0C94761C0C942B0A0C942B0AEF
:100060000C942B0A0C942B0A0C942B0A0C942B0A3C
:100070000C942B0A0C942B0A0C942B0A0C942B0A2C
:100080000C942B0A0C942B0A0C942B0A0C942B0A1C
:100090000C942B0A0C942B0AA900AA0049004C00CE
:1000A0000000290000003A003B003C003D003E00FB
:1000B0003F00400041000000420043004400450072
:1000C0000000000000000000000000000000000030
:1000D0000000000000000000000000000000000020
:1000E00000000000000000005300540055005600BE
:1000F000000035001E001F00200021002200230008
:1001000024002500260027002D002E002A000000D4
:100110005F0060006100570000002B0014001A000F
:100120000800150017001C0018000C001200130036
:100130002F003000310000005C005D005E005800C0
:100140000000390004001600070009000A000B0037
:100150000D000E000F0033003400000028000000E6
:1001600059005A005B00000052000000E1001D0031
:100170001B000600190005001100100036003700B2
:100180003800E500000001510000620063005000EB
:1001900051004F000000E000E200000000000000FD
:1001A0002C00000000000000E200E700E400000076
:1001B000290046004700480000000100000001003F
:1001C0000100010001000100010001000100000028
:1001D00001000100010000700000000000000000AC
:1001E000000000000000000000000000000000000F
:1001F00000000000000000000000000000000000FF
:1002000001000100010001000000010001000100E7
:1002100001000100010001000100010001000100D6
:1002200001000100010000000100010001000100C7
:1002300000000100010001000100010001000100B7
:1002400001000100010001000100010001000000A7
:100250000100010001000100000001000100010097
:100260000100010001000100010001000100010086
:100270000100000001000000010001000100000079
:100280004B0000000100010001000100010001001D
:100290000100010001000100010001000000010057
:1002A0000000010001004A004E004D000000010066
:1002B000010000000000000001000000000000003C
:1002C0000100010001000000010001000100010027
:1002D0000000010000000100010001000100010018
:1002E0000100010001000000010001000100010007
:1002F00000000000000000000000000000000000FE
:1003000000000000000000000000000000000000ED
:1003100000000000000000000100010001000100D9
:1003200000000100010001000100010001000100C6
:1003300001000100010001000100010001000000B6
:1003400001000100010001000000010001000100A6
:100350000100010001000100010001000100010095
:100360000100010001000000010001000100010086
:100370000000010001000100010001000100010076
:100380000100010001000100010000000100000067
:100390000100010001000000010000000100010057
:1003A0000100010001000100010001000100010045
:1003B0000100010000000100000001000100010037
:1003C0000100010000000100010000000000000029
:1003D0000100000000000000010001000100000019
:1003E0000100010001000100000001000000010007
:1003F00001000100010001000100010001000000F6
:1004000001000100010001000000000000000000E8
:1004100000000000000000000000000000000000DC
:1004200000000000000000000000000000000000CC
:1004300001000100010001000000010001000100B5
:1004400001000100010001000100010001000100A4
:100450000100010001000000010001000100010095
:100460000000010001000100010001000100010085
:100470000100010001000100010001000100000075
:100480000100010001000100000001000100010065
:100490000100010001000100010001000100010054
:1004A0000100000001000000010001000100000047
:1004B0000100000001000100010001000100010035
:1004C0000100010001000100010001000000010025
:1004D0000000010001000100010001000000010016
:1004E000010000000000000001000000000000000A
:1004F00001000100010000000100010001000100F5
:1005000000000100000001000100010001000100E5
:1005100001000100010000000100010001000100D4
:1005200000000000000000000000000000000000CB
:1005300000000000000000000000000000000000BB
:1005400000000000000000000100010001000100A7
:100550000000010001000100010001000100010094
:100560000100010001000100010001000100000084
:100570000100010001000100000001000100010074
:100580000100010001000100010001000100010063
:100590000100010001000000010001000100010054
:1005A0000000010001000100010001000100010044
:1005B0000100010001000100010000000100000035
:1005C0000100010001000000010000000100010025
:1005D0000100010001000100010001000100010013
:1005E0000100010000000100000001000100010005
:1005F00001000100000001000100000000000000F7
:1006000001000000000000000100010001000000E6
:1006100001000100010001000000010000000100D4
:1006200001000100010001000100010001000000C3
:1006300001000100010001000000000000000000B6
:1006400000000000000000000000000000000000AA
:10065000000000000000000000000000000000009A
:100660000100010001000100000001000100010083
:100670000100010001000100010001000100010072
:100680000100010001000000010001000100010063
:100690000000010001000100010001000100010053
:1006A0000100010001000100010001000100000043
:1006B0000100010001000100000001000100010033
:1006C0000100010001000100010001000100010022
:1006D0000100000001000000010001000100000015
:1006E0000100000001000100010001000100010003
:1006F00001000100010001000100010000000100F3
:1007000000000100010001000100010000000100E3
:1007100001000000000000000100000000000000D7
:1007200001000100010000000100010001000100C2
:1007300000000100000001000100010001000100B3
:1007400001000100010000000100010001000100A2
:100750000000000000000000000000000000000099
:100760000000000000000000000000000000000089
:100770000000000000000000010001000100010075
:100780000000010001000100010001000100010062
:100790000100010001000100010001000100000052
:1007A0000100010001000100000001000100010042
:1007B0000100010001000100010001000100010031
:1007C0000100010001000000010001000100010022
:1007D0000000010001000100010001000100010012
:1007E0000100010001000100010000000100000003
:1007F00001000100010000000100000001000100F3
:1008000001000100010001000100010001000100E0
:1008100001000100000001000000010001000100D2
:1008200001000100000001000100000000000000C4
:1008300001000000000000000100010001000000B4
:1008400001000100010001000000010000000100A2
:100850000100010001000100010001000100000091
:100860000100010001000100000000000000000084
:100870000000000000000000000000000000000078
:100880000000000000000000000000000000000068
:100890000100010001000100000001000100010051
:1008A0000100010001000100010001000100010040
:1008B0000100010001000000010001000100010031
:1008C0000000010001000100010001000100010021
:1008D0000100010001000100010001000100000011
:1008E0000100010001000100000001000100010001
:1008F00001000100010001000100010001000100F0
:1009000001000000010000000100010001000000E2
:1009100001000000010001000100010001000100D0
:1009200001000100010001000100010000000100C0
:1009300000000100010001000100010000000100B1
:1009400001000000000000000100000000000000A5
:100950000100010001000000010001000100010090
:100960000000010000000100010001000100010081
:100970000100010001000000010001000100010070
:100980000000000000000000000000000000000067
:100990000000000000000000000000000000000057
:1009A0000000000000000000010001000100010043
:1009B0000000010001000100010001000100010030
:1009C0000100010001000100010001000100000020
:1009D0000100010001000100000001000100010010
:1009E00001000100010001000100010001000100FF
:1009F00001000100010000000100010001000100F0
:100A000000000100010001000100010001000100DF
:100A100001000100010001000100000001000000D0
:100A200001000100010000000100000001000100C0
:100A300001000100010001000100010001000100AE
:100A400001000100000001000000010001000100A0
:100A50000100010000000100010000000000000092
:100A60000100000000000000010001000100000082
:100A70000100010001000100000001000000010070
:100A8000010001000100010001000100010000005F
:100A90000100010001000100000000000000000052
:100AA0000000000000000000000000000000000046
:100AB0000000000000000000000000000000000036
:100AC000010001000100010000000100010001001F
:100AD000010001000100010001000100010001000E
:100AE00001000100010000000100010001000100FF
:100AF00000000100010001000100010001000100EF
:100B000001000100010001000100010001000000DE
:100B100001000100010001000000010001000100CE
:100B200001000100010001000100010001000100BD
:100B300001000000010000000100010001000000B0
:100B4000010000000100010001000100010001009E
:100B5000010001000100010001000100000001008E
:100B6000000001000100010001000100000001007F
:100B70000100000000000000010000000000000073
:100B8000010001000100000001000100010001005E
:100B9000000001000000010001000100010001004F
:100BA000010001000100000001000100010001003E
:100BB0000000000000000000000000000000000035
:100BC0000000000000000000000000000000000025
:100BD0000000000000000000010001000100010011
:100BE00000000100010001000100010001000100FE
:100BF00001000100010001000100010001000000EE
:100C000001000100010001000000010001000100DD
:100C100001000100010001000100010001000100CC
:100C200001000100010000000100010001000100BD
:100C300000000100010001000100010001000100AD
:100C4000010001000100010001000000010000009E
:100C5000010001000100000001000000010001008E
:100C6000010001000100010001000100010001007C
:100C7000010001000000010000000100010001006E
:100C80000100010000000100010000000000000060
:100C90000100000000000000010001000100000050
:100CA000010001000100010000000100000001003E
:100CB000010001000100010001000100010000002D
:100CC0000100010001000100000000000000000020
:100CD0000000000000000000000000000000000014
:100CE0000000000000000000000000000000000004
:100CF00001000100010001000000010001000100ED
:100D000001000100010001000100010001000100DB
:100D100001000100010000000100010001000100CC
:100D200000000100010001000100010001000100BC
:100D300001000100010001000100010001000000AC
:100D4000010001000100010000000100010001009C
:100D5000010001000100010001000100010001008B
:100D6000010000000100000001000100010000007E
:100D7000010000000100010001000100010001006C
:100D8000010001000100010001000100000001005C
:100D9000000001000100010001000100000001004D
:100DA0000100000000000000010000000000000041
:100DB000010001000100000001000100010001002C
:100DC000000001000000010001000100010001001D
:100DD000010001000100000001000100010001000C
:100DE0000000000000000000000000000000000003
:100DF00000000000000000000000000000000000F3
:100E000000000000000000000100010001000100DE
:100E100000000100010001000100010001000100CB
:100E200001000100010001000100010001000000BB
:100E300001000100010001000000010001000100AB
:100E4000010001000100010001000100010001009A
:100E5000010001000100000001000100010001008B
:100E6000000001000100010001000100010001007B
:100E7000010001000100010001000000010000006C
:100E8000010001000100000001000000010001005C
:100E9000010001000100010001000100010001004A
:100EA000010001000000010000000100010001003C
:100EB000010001000000010001000000000000002E
:100EC000010000000000000001000100010000001E
:100ED000010001000100010000000100000001000C
:100EE00001000100010001000100010001000000FB
:100EF00001000100010001000000000000000000EE
:100F000000000000000000000000000000000000E1
:100F100000000000000000000000000000000000D1
:100F200001000100010001000000010001000100BA
:100F300001000100010001000100010001000100A9
:100F4000010001000100000001000100010001009A
:100F5000000001000100010001000100010001008A
:100F6000010001000100010001000100010000007A
:100F7000010001000100010000000100010001006A
:100F80000100010001000100010001000100010059
:100F9000010000000100000001000100010000004C
:100FA000010000000100010001000100010001003A
:100FB000010001000100010001000100000001002A
:100FC000000001000100010001000100000001001B
:100FD000010000000000000001000000000000000F
:100FE00001000100010000000100010001000100FA
:100FF00000000100000001000100010001000100EB
:1010000001000100010000000100010001000100D9
:1010100000000000000000000000000000000000D0
:1010200000000000000000000000000000000000C0
:1010300000000000000000000100010001000100AC
:101040000000010001000100010001000100010099
:101050000100010001000100010001000100000089
:101060000100010001000100000001000100010079
:101070000100010001000100010001000100010068
:101080000100010001000000010001000100010059
:101090000000010001000100010001000100010049
:1010A000010001000100010001000000010000003A
:1010B000010001000100000001000000010001002A
:1010C0000100010001000100010001000100010018
:1010D000010001000000010000000100010001000A
:1010E00001000100000001000100000000000000FC
:1010F00001000000000000000100010001000000EC
:1011000001000100010001000000010000000100D9
:1011100001000100010001000100010001000000C8
:1011200001000100010001000000000000000000BB
:1011300000000000000000000000000000000000AF
:10114000000000000000000000000000000000009F
:101150000100010001000100000001000100010088
:101160000100010001000100010001000100010077
:101170000100010001000000010001000100010068
:101180000000010001000100010001000100010058
:101190000100010001000100010001000100000048
:1011A0000100010001000100000001000100010038
:1011B0000100010001000100010001000100010027
:1011C000010000000100000001000100010000001A
:1011D0000100000001000100010001000100010008
:1011E00001000100010001000100010000000100F8
:1011F00000000100010001000100010000000100E9
:1012000001000000000000000100000000000000DC
:10121000010001000100000012036B00650079006D
:1012200062006F006100720064000000160371002C
:101230006D006B006200750069006C006400650061
:10124000720000000403090409026D00040100A0FB
:10125000FA09040000010301010009211101000144
:101260002240000705810308000A09040100010368
:10127000010200092111010001224D00070582032E
:1012800008000A09040200010300000009211101FD
:1012900000012236000705830308000A0904030041
:1012A0000103000000092111010001223900070596
:1012B00084032000011201100100000008EDFE600F
:1012C0006001000102000105010906A101050719DD
:1012D000E029E71500250195087501810205081927
:1012E0000129059505750191029501750391010587
:1012F00007190029F71500250195F875018102C02D
:1013000005010980A10185021601002603001A814A
:10131000002A8300751095018100C0050C0901A108
:10132000018503160100269C021A01002A9C027501
:101330001095018100C005010902A1010901A10068
:101340000509190129051500250195057501810279
:101350009501750381010501093009311581257F4A
:1013600095027508810609381581257F9501750854
:101370008106050C0A38021581257F9501750881C3
:1013800006C0C005010906A101050719E029E715F6
:1013900000250195087501810295017508810105F7
:1013A00008190129059505750191029501750391AB
:1013B000010507190029FF150026FF00950675088D
:1013C0008100C00011241FBECFEFD0E2DEBFCDBF31
:1013D00004B603FE27C08091B2029091B302A0919F
:1013E000B402B091B5028730904BA740B04BD1F416
:1013F0001092B2021092B3021092B4021092B5028F
:1014000014BE84B7877F84BF0FB6F894A8958091E7
:101410006000886180936000109260000FBEE0E081
:10142000F8EF099511E0A0E0B1E0EAEAF2E500E0AA
:101430000BBF02C007900D92A234B107D9F722E08A
:10144000A2E4B1E001C01D92A23BB207E1F70E9405
:101450005D220C9427290C94000090E080E0089510
:101460000895089581E00895089581E008950C9409
:10147000320A0E9456142FEF84E39CE021508040F2
:101480009040E1F700C000000C94991CEF92FF928D
:101490000F931F93CF93DF938C01FC01E080F180C9
:1014A0008091B201811140C082818823C1F1C701BE
:1014B0000E94DB19C82F682FC7010E948419B70149
:1014C0008C2F0E947E0BEC01B8010E94370A882302
:1014D00009F44BC0B801CE010E94870D882309F49E
:1014E00044C0C531F0E7DF0720F5C23080E7D807F8
:1014F00008F04DC0C115E0E7DE0791F1C130D047DB
:10150000E1F181E08093440180934501C801DF91BE
:10151000CF911F910F91FF90EF900C94350AC70166
:101520000E94B219C82FCBCFC7010E94DB19B701A7
:10153000C8CFCC3380E7D80709F49BC0CD33D04760
:1015400001F7F8018281882309F4BAC0109245019D
:101550000E94451C909343018093420180E296C013
:10156000F801828181110E94390A80E0DF91CF91D8
:101570001F910F91FF90EF900895F80182818823C9
:10158000A1F380917202816080937202EECFF80124
:101590008281882309F4BACF0E94961B811102C070
:1015A0000E947C1B0E94B31B90E09093A402809346
:1015B000A302FE01E350F0478091A3028160E23173
:1015C000F10538F4E75DF64D0C94D4288091A30220
:1015D00082608093A3028091A3020E94B71B0E94A5
:1015E0005614C3CF8091A3028460F3CF8091A302ED
:1015F0008860EFCF8091A3028061EBCF8091A3023E
:101600008062E7CF8091A3028064E3CF8091A30240
:101610008068DFCF8091A3028C60DBCF8091A30232
:101620008E7FD7CF8091A3028D7FD3CF8091A302ED
:101630008B7FCFCF8091A302877FCBCF8091A302F6
:101640008F7EC7CF8091A3028F7DC3CF8091A302ED
:101650008F7BBFCF8091A3028F77BBCF8091A302F6
:10166000837FB7CF9091A302892F97FB87F980588A
:10167000B0CFF8018281882361F0109244010E946A
:10168000451C909343018093420182E00E94BB116C
:101690006CCF8091440181110FC0809142019091E3
:1016A00043010E94511C883C910530F486E20E945F
:1016B000901086E20E946C1182E00E94C21155CF08
:1016C0008091450181110FC08091420190914301A9
:1016D0000E94511C883C910530F487E20E949010D2
:1016E00087E20E946C1180E2E8CF0C94D60D0C9436
:1016F000D80D0C94340A0C94790B0895972F70E050
:1017000024E1929F600D711D1124FB019CE8899FCB
:10171000E00DF11D1124EE0FFF1FE856FF4F8591DC
:1017200094910895FC01EE0FFF1FE85EFD4E859138
:10173000949108950E947E0B0E940B0D9C018115CF
:1017400040E4940708F097C0211580E3380708F0BB
:10175000FAC0203E310508F074C0203C310508F085
:10176000E5C0283A310588F4253A310508F0E2C091
:101770002130310509F477C0C9010497813A9105F8
:1017800008F471C030E020E06EC0C901885A9109A8
:101790004597C0F7283A310509F4FEC0293A3105CA
:1017A00009F4FDC02A3A310509F4FCC02B3A310591
:1017B00009F4FBC02C3A310509F4FAC02B3B310582
:1017C00009F4F9C02C3B310509F4F8C02D3A310574
:1017D00009F4F7C0203B310509F4F6C02E3A310573
:1017E00009F4F5C02F3A310509F4F4C0213B310565
:1017F00009F4F3C0223B310509F4F2C0233B310563
:1018000009F4F1C0243B310509F4F0C0253B310552
:1018100009F4EFC0263B310509F4EEC0273B310542
:1018200009F4EDC0283B310509F4ECC0293B310532
:1018300009F4EBC02A3B310509F4EAC020E034E4A6
:1018400012C0211590E2390780F42F3F310509F0CD
:1018500050F4283E310538F0C901805F91093065A8
:10186000409708F08FCFC9010895C9019F700E9469
:10187000920B9C01F8CF8115944508F041C02115C9
:1018800083E5380708F06AC0211592E5390738F575
:10189000211541E5340708F05CC0211580E53807C3
:1018A00008F454C0C90134E0969587953A95E1F75C
:1018B0008370422F46954695437090E2499FA00160
:1018C0001124582B822F837021E030E002C0220FB8
:1018D000331F8A95E2F7242B352B3C68C4CFC9010E
:1018E0008370992741E050E002C0440F551F8A954C
:1018F000E2F72695269580E2289F90011124EBCFF0
:10190000211596E5390748F4922F8827211535458A
:10191000C8F59C01246F306AA6CFC90190563F706C
:101920008115904108F02ECF30629DCFC901805CB7
:1019300091099DCF253A310549F1263A310549F5FE
:1019400022E830E490CF3327306C8DCF3F70306A7F
:101950008ACF322F2227216F306A85CFC901837049
:10196000992741E050E002C0440F551F8A95E2F7E5
:101970002695269580E2289F90011124242B352B53
:101980003A6871CF88279F719C01CECF21E830E45F
:101990006ACF23E830E467CF22EE34E464CF29EE47
:1019A00034E461CF2AEE34E45ECF25EB34E45BCF40
:1019B00026EB34E458CF23EB34E455CF24EB34E466
:1019C00052CF27EB34E44FCF2CEC34E44CCF2DEC4A
:1019D00034E449CF23E835E446CF2AE835E443CF61
:1019E00022E935E440CF24E935E43DCF21E236E475
:1019F0003ACF23E236E437CF24E236E434CF25E28F
:101A000036E431CF26E236E42ECF27E236E42BCF80
:101A10002AE236E428CF803E910581F1C8F4813373
:101A2000910509F462C048F48932910509F456C061
:101A30008A32910509F460C0089589339105B9F09F
:101A400082389105A1F08533910509F440C00895CD
:101A5000863E910561F138F4823E9105B1F0833EF6
:101A60009105E1F00895873E910551F10895209187
:101A7000A3022370D9F080EE90E008952091A30294
:101A800020FF14C089E390E008952091A30222FF73
:101A90000DC024FD09C083EE90E008952091A302BB
:101AA00022FD31C024FF02C090E080E00895209123
:101AB000A30223FFFBCF24FDF7CF87EE90E008952C
:101AC0002091A30223FFEECF86EE90E008952091AF
:101AD000A30225FFEBCF89E290E008952091A302B5
:101AE00025FFE4CF85E390E008952091A30226FF2F
:101AF000DDCF8AE290E008952091A30226FFD6CFA1
:101B000081E390E0089582EE90E0089508950F93A8
:101B10001F93CF938C01FB018281811106C0C1E02C
:101B20008C2FCF911F910F910895C0915301C11136
:101B300025C00531104799F70E94860D81E08093FA
:101B400053010E94451C90935201809351011092C1
:101B50004601109248011092470110924A011092DA
:101B6000490110924C0110924B0110924E011092BB
:101B70004D011092500110924F01D2CF809151012E
:101B8000909152010E94511C883C910540F6809131
:101B90004601E82FF0E0EE0FFF1FE95BFE4F1183D7
:101BA00000838F5F80934601C0E0BACF0C94300A67
:101BB0000C94310A85B7806885BF85B7806885BF7A
:101BC000A7E2B1E061E070E08D91E82FE295EF705F
:101BD000F0E041A18F709B0101C0220F8A95EAF7C6
:101BE000922F9095942391A382A1822B82A381E0CE
:101BF000AE32B80749F7A3E1B1E061E070E08D9142
:101C0000E82FE295EF70F0E041A18F709B0101C0D9
:101C1000220F8A95EAF7922F9095942391A382A19F
:101C2000822B82A381E0A732B80749F7E0E7F1E011
:101C3000A4E5B1E08CE891E0119211921192119219
:101C40001D921D921D921D928E179F07A9F70C944D
:101C5000750B2F923F924F925F926F927F928F926D
:101C60009F92AF92BF92CF92DF92EF92FF920F932B
:101C70001F93CF93DF93CDB7DEB72B970FB6F894B2
:101C8000DEBF0FBECDBF84E5282E81E0382E07E2EF
:101C900011E01E830D8338862F82C12CD12C760152
:101CA000C394AF81B8858D909D90AD90BD90B8875D
:101CB000AF83FD011292129212921292FB87EA8771
:101CC000AD81BE818D91BE83AD83E82FE295EF702B
:101CD000F0E091A18F7001E010E002C0000F111F31
:101CE0008A95E2F71A830983802F892B81A382A129
:101CF00000950987802382A310EA1A95F1F723E162
:101D000031E03C832B8390E080E0AB81BC817D900F
:101D1000BC83AB83272D22952F7030E0D90190969C
:101D20005C90AA85BB854D915D916D917C91272D2D
:101D30002F7001E010E002C0000F111F2A95E2F79A
:101D40009801252109F07AC097018601082E04C068
:101D5000000F111F221F331F0A94D2F728013901E7
:101D60004429552966297729AA85BB854D935D931A
:101D70006D937C93139701968431910531F681A17F
:101D80001985182311A382A1B9818B2B82A3EA851F
:101D9000FB8580819181A281B38188169906AA066C
:101DA000BB0649F0F1E0F0938C010E94451C909332
:101DB0008E0180938D010F8118850057114009F025
:101DC00070CF80918C018823E9F080918D019091F2
:101DD0008E010E94511C0697A8F020E731E0F10126
:101DE00081919191A191B1911F01F90181939193F9
:101DF000A193B1939F01F0E72F16F1E03F0679F729
:101E000010928C010E94770B81E02B960FB6F8940C
:101E1000DEBF0FBECDBFDF91CF911F910F91FF901D
:101E2000EF90DF90CF90BF90AF909F908F907F907A
:101E30006F905F904F903F902F900895412C512CC0
:101E400032018ECFCF93DF9300D000D0CDB7DEB775
:101E500094E0899FF0011124E059FE4F8081918127
:101E6000A281B381BC01CD010F900F900F900F9014
:101E7000DF91CF91089508959093940180939301F9
:101E80000895E0919301F0919401309721F0019031
:101E9000F081E02D099480E00895E0919301F091A4
:101EA0009401309721F00280F381E02D0994089588
:101EB000E0919301F0919401309721F00480F58135
:101EC000E02D0994089520919101309192012817F5
:101ED000390771F09093920180939101E091930101
:101EE000F0919401309721F00680F781E02D09945C
:101EF000089520918F01309190012817390771F0D2
:101F00009093900180938F01E0919301F09194015F
:101F1000309721F00084F185E02D0994089508950B
:101F20000C948F0F0E943C1C0E94DA0D0C94051D2E
:101F30004F925F926F927F929F92AF92BF92CF9299
:101F4000DF92EF92FF920F931F93CF93DF9300D016
:101F500000D00F92CDB7DEB70E94290E26E9A22E3F
:101F600021E0B22E10E000E0902E802F0E94220F80
:101F70006B017C01F50141905190619071905F017E
:101F80004C145D046E047F0409F475C080917202E4
:101F900081FD0E943B0F90E080E04C245D246E2484
:101FA0007F24B301A201082E04C07695679557954A
:101FB00047950A94D2F740FF59C089839A82412CF1
:101FC000512C3201439404C0440C551C661C771CF0
:101FD0008A95D2F7C420D520E620F72081E0CD28CD
:101FE000CE28CF2809F480E08B830E94451C8160B5
:101FF000782F9D838C8349815A816B818D810E94CA
:102000006710000F111F000F111FF801EA56FE4F55
:1020100080819181A281B38184259525A625B7254C
:1020200080839183A283B3830E94B21F0E94410FD9
:10203000909195018917B1F10E94410F809395010C
:102040000F900F900F900F900F90DF91CF911F91F5
:102050000F91FF90EF90DF90CF90BF90AF909F9047
:102060007F906F905F904F900C947B0B0196843122
:10207000910509F096CF0F5F1F4F0730110509F04A
:1020800073CF8FEF89838A831B820E94451C8160F6
:10209000782F9D838C8349815A816B818D810E9429
:1020A0006710C2CF0F900F900F900F900F90DF919D
:1020B000CF911F910F91FF90EF90DF90CF90BF9045
:1020C000AF909F907F906F905F904F900895CF93C7
:1020D000DF93CDB7DEB72B970FB6F894DEBF0FBEF8
:1020E000CDBF4F83588769877A878B871E8285E0AB
:1020F000FE013796DE01119601900D928A95E1F767
:1021000049815A816B817C818D819E812B960FB68E
:10211000F894DEBF0FBECDBFDF91CF910C94DE16D9
:10212000882309F4D8C0823871F40E94410F81FDE0
:10213000D2C089E30E94831A0E944D1B89E30E944A
:10214000C01A0C944D1B833859F40E94410F80FD36
:10215000C2C083E50E94831A0E944D1B83E5EFCF26
:10216000843859F40E94410F82FDB5C087E40E9473
:10217000831A0E944D1B87E4E2CF9CEF980F913A9F
:1021800018F40E94831ADDCF90E2980F983050F433
:10219000877091E001C0990F8A95EAF7892F0E9414
:1021A000041BCFCF9BE5980F933070F4853A31F044
:1021B000863A39F083E890E00C94630F81E890E070
:1021C000FBCF82E890E0F8CF98E5980F953108F0C2
:1021D00082C0883A09F440C0893A09F440C08A3A7A
:1021E00009F440C08B3A09F440C08C3A09F440C06D
:1021F0008B3B09F440C08C3B09F440C08D3A09F494
:1022000040C0803B09F440C08E3A09F440C08F3A88
:1022100009F440C0813B09F440C0823B09F440C04E
:10222000833B09F440C0843B09F440C0853B09F47A
:1022300040C0863B09F440C0873B09F440C0883B5E
:1022400009F440C0893B09F440C08A3B09F440C00E
:1022500090E080E00C94790F82EE90E0FBCF89EE65
:1022600090E0F8CF8AEE90E0F5CF85EB90E0F2CFEA
:1022700086EB90E0EFCF83EB90E0ECCF84EB90E047
:10228000E9CF87EB90E0E6CF8CEC90E0E3CF8DECEC
:1022900090E0E0CF83E891E0DDCF8AE891E0DACF0B
:1022A00082E991E0D7CF84E991E0D4CF81E292E056
:1022B000D1CF83E292E0CECF84E292E0CBCF85E231
:1022C00092E0C8CF86E292E0C5CF87E292E0C2CF2B
:1022D0008AE292E0BFCF0895882309F44BC0823888
:1022E00071F40E94410F81FF45C089E30E94831A67
:1022F0000E944D1B89E30E94C01A0C944D1B833829
:1023000059F40E94410F80FF35C083E50E94831A73
:102310000E944D1B83E5EFCF843859F40E94410F92
:1023200082FF28C087E40E94831A0E944D1B87E425
:10233000E2CF9CEF980F913AF0F290E2980F98302C
:1023400050F4877091E001C0990F8A95EAF7892FC0
:102350000E940A1BD2CF9BE5980F933020F490E0A7
:1023600080E00C94630F885A853120F490E080E07F
:102370000C94790F0895882321F00E94041B0C947B
:102380004D1B0895882321F00E940A1B0C944D1BBD
:1023900008958F929F92AF92BF92DF92EF92FF9239
:1023A0000F931F93CF93DF9300D000D00F92CDB740
:1023B000DEB77C016D837983FC01058102950F7086
:1023C000128111110E94231B0E947C1AD82E88238F
:1023D00071F01123A1F08D81805E883080F082E061
:1023E0000E94661A0E947C1A91E0D82ED926E981B3
:1023F000E295EF70F0E0E55CF64D0C94D428D12C1A
:10240000F6CF09810F70F981F07F11F00295007FFE
:102410001123B1F0002361F08D81805E883018F0C7
:102420002D81211109C0802F0E94041B0E944D1B89
:102430008D810E94901015C0802F0E94151BF6CF31
:102440008D810E946C11002361F08D81805E883047
:1024500018F03D81311129C0802F0E940A1B0E9473
:102460004D1BDD2009F4D3C10E94591A80FDCFC154
:10247000F70112820E94531A0E949C18C7010E9401
:1024800018140E94531A0F900F900F900F900F90F6
:10249000DF91CF911F910F91FF90EF90DF90BF9050
:1024A000AF909F908F900C94BE18802F0E941B1BA2
:1024B000D6CF49814F70B42E5981507F503219F0D8
:1024C000B29480EFB8228D81882369F0813029F1A0
:1024D000112369F1002359F0F701858180FFA8CF0E
:1024E0008F70858304C0112361F0011104C08B2D0E
:1024F0000E94BB11B6CF8B2D0130D1F70E94371B44
:10250000B0CF011106C00E943A1B8B2D0E94C21150
:10251000A8CF013009F4A5CFF6CF112321F0063062
:1025200008F09FCFE4CF053008F09BCFEECF00231B
:1025300061F38D810E946C1194CF89818695869577
:10254000837069F0813009F08CCF8D81998193700F
:10255000111102C090E080E00E94790F82CF8D813E
:1025600099819370111102C090E080E00E94630F86
:1025700078CF8D81112329F00E94C01E0E94A71FD1
:1025800070CF0E94281FFACF8981837009F05FC045
:10259000111167CF2D81229526952770220F220FCA
:1025A0008D818F7090E0B0E0A0E04C015D01022EC3
:1025B00004C0880C991CAA1CBB1C0A94D2F7FD818C
:1025C00060E070E0CB01F4FF0FC06FE070E080E0EE
:1025D00090E004C0660F771F881F991F2A95D2F7D5
:1025E0006095709580959095298126952695237004
:1025F0002D832230B1F0233019F19B01AC01282941
:1026000039294A295B2929833A834B835C833D819D
:1026100069817A818B819C813130B1F00E942918C7
:1026200020CF9B01AC01282939294A295B2929831C
:102630003A834B835C83CA01B9010E94531811CFBE
:102640000E942918C501B4010E94FF170ACF869580
:10265000112311F089818170882309F402CF2D8123
:10266000229526952770220F220F8D818F7090E082
:10267000B0E0A0E04C015D01022E04C0880C991C62
:10268000AA1CBB1C0A94D2F73D8160E070E0CB012C
:1026900034FF0FC06FE070E080E090E004C0660F90
:1026A000771F881F991F2A95D2F76095709580959E
:1026B000909549814695469543704D834230B1F0DF
:1026C000433019F19B01AC01282939294A295B299A
:1026D00029833A834B835C833D8169817A818B8135
:1026E0009C813130B1F00E942F19BBCE9B01AC010F
:1026F000282939294A295B2929833A834B835C831A
:10270000CA01B9010E945919ACCE0E942F19C50106
:10271000B4010E940519A5CE3D81323F09F447C09E
:1027200080F4303F79F1313FD9F1832F805E8031E1
:10273000D0F0112309F456C001117ACE89818F712E
:1027400033C04D81433FD1F1443F99F7112309F440
:102750003FC089818F7189830E949C1863E08981C1
:102760000E945D1A7ECE5D815F705D8389818F716D
:10277000112321F00E949C188D81BACE0E94BE18B0
:102780008D81C4CE112341F0053008F06ACE8981D5
:102790008F710E94E31865CE063008F062CEF7CF45
:1027A00089818F71112339F00E949C185ACE89813A
:1027B0008F711123C9F30E94BE1853CE112329F043
:1027C00089818F710E9487184CCE0E947D1849CE56
:1027D00081E00E94661A023008F443CE82E00E9433
:1027E000661A3FCE0111A5CE89818F71E4CF498150
:1027F0004F706D81C7010E942D0A0E94781731CE5B
:1028000049814F706D81C7010E947D0B2ACE0F90C8
:102810000F900F900F900F90DF91CF911F910F911C
:10282000FF90EF90DF90BF90AF909F908F900895B2
:102830000F931F93CF93DF93EC018B819C81892BA6
:1028400029F08881998189238F3F29F4DF91CF91E5
:102850001F910F910895CE010E94460A8823B1F37B
:10286000688179818A810E94291A8C010E948319CA
:102870000E94F417B801CE01DF91CF911F910F9103
:102880000C94C9110E94231B0E94341B0E94F61A4B
:102890000E944D1B0E9498200E94A71F90E080E09C
:1028A0000E94630F90E080E00C94790F0E94121B4D
:1028B0000C9442140E941D1A282F892F82958F7024
:1028C000903C80F48A30B0F4843020F4823090F46C
:1028D00080E008958630E1F781E0203E88F0213FD6
:1028E000B9F70EC08C3011F08F3091F793FB882729
:1028F00080F9089581E0203F39F018F4203E40F738
:102900000895243F29F7FCCF0895CF93DF9300D09B
:1029100000D00F92CDB7DEB70F900F900F900F90B1
:102920000F90DF91CF910895CF93DF9300D000D027
:1029300000D0CDB7DEB726960FB6F894DEBF0FBE37
:10294000CDBFDF91CF9108951F93CF93DF93E09197
:10295000B30116E08091B4018E1304C0DF91CF91D2
:102960001F910895CE2FD0E01E9FF0011124EB544B
:10297000FE4F4081518162817381848195810E94E3
:102980009414FE013196E770E5CF4091E501509136
:10299000E6016091E7017091E8018091E901909171
:1029A000EA010C9494141F93CF93DF938091EA0172
:1029B000807FC1F48091E7018823A1F08091B30169
:1029C000C091B4016091E5017091E6014091E80188
:1029D0005091E901D62FD723DA01A095B09516E0E2
:1029E000C81304C0DF91CF911F91089590E0411565
:1029F000510511F0DF3F31F401968770F1CF2A0FB6
:102A00003B1F17C0189FF001199FF00D1124EB54C4
:102A1000FE4F21812713F0CF20812613EDCF228195
:102A20002111EACF238134812417350740F3241B79
:102A3000350B283C310500F72091EA012F70206109
:102A40002093EA0126E0289FF001299FF00D112430
:102A5000E654FE4F80818F708061808385EE91E027
:102A60000E941814DF91CF911F910C94A4149F928F
:102A7000AF92BF92CF92DF92EF92FF920F931F938C
:102A8000CF93DF93CDB7DEB72B970FB6F894DEBFA9
:102A90000FBECDBF8C0185E0F801DE0117960190D5
:102AA0000D928A95E1F7D8014C9111965C9111979E
:102AB0001296EC9012978091E8019091E9010097AD
:102AC00009F46BC12091E5013091E601632F622387
:102AD0006F3F09F462C11396CD90DC909090E701AE
:102AE000992009F4F8C0C816D90608F43FC0F601C9
:102AF000E81BF90BCF01FF24F394883C910508F003
:102B0000F12C85EEA82E81E0B82E8091EA01982F55
:102B1000907FFF2009F4B7C0911180C0FE2C3513BF
:102B20002AC0241328C0E11026C08F7080618093D2
:102B3000EA010E94C514C5010E9418148091EA019F
:102B4000D80115968C938F2D2B960FB6F894DEBF77
:102B50000FBECDBFDF91CF911F910F91FF90EF90EE
:102B6000DF90CF90BF90AF909F9008958095909503
:102B70008C0D9D1DC0CFCD2829F0842F85238F3F3C
:102B800009F019C180E0B82FB170DB2EE091B301DC
:102B90002091B40136E080FD1CC0EE20A1F28091AE
:102BA000EA0181608093EA01F12CCDCF8E2F90E075
:102BB0003E9FF0011124EB54FE4F6181651306C066
:102BC0006081641303C062816E11E7CFFC0131960E
:102BD000E770E213EBCF4F8358878F8198850E946F
:102BE0001D1A292F22952F70903260F0225F2F70CE
:102BF000223078F49F7051F0F8019581907F31F484
:102C0000D12C0AC09F7011F08823D1F3805E8830E8
:102C1000B8F3C8010E941814FD2C95CF351306C0D7
:102C2000241304C0D801EE2009F47BC04F835887D9
:102C30008F8198850E945A14882309F4B8C0EE2029
:102C400009F4B5C08091EA01803270F02091E5016D
:102C50003091E6013A8329831B82DD82CC828E8308
:102C6000CE0101960E94181486E0F801A5EEB1E0AD
:102C700001900D928A95E1F70E94D3140E94C51429
:102C8000FF24F39460CF911113C07C2DDB86CA869C
:102C90006E2D8B850E94851485EE91E00E9418149C
:102CA00086E0F50111928A95E9F70E94C5144BCF91
:102CB0003513BCCF2413BACFE110B8CFD801159685
:102CC0008C93C8010E94181486E0F50111928A9530
:102CD000E9F7F92C38CFC816D90688F1B601681B78
:102CE000790BCB01F12C883C910508F047C0FE2CF4
:102CF000EE2009F45CC0351330C024132EC080913F
:102D0000EA0180FD21C0982F907FF1F0D80115963F
:102D10008C931597903F39F0982F907F905F8F702C
:102D2000892B15968C93C8010E94181486E0F8012F
:102D3000A5EEB1E001900D928A95E1F7B6CF8095AE
:102D400090958C0D9D1DCECF86E0F801A5EEB1E0EB
:102D500001900D928A95E1F7F6CE4F8358878F81C7
:102D600098850E945A1481117FCF8091EA01816079
:102D70008093EA01C8010E941814E5CE7C2DDB8601
:102D8000CA866E2D8B850E94851486E0E5EEF1E003
:102D9000DF011D928A95E9F788CFEE2041F04F833D
:102DA00058878F8198850E945A1481115DCFC80180
:102DB0000E94181465CF81E08E25E5CE1F93CF9336
:102DC000DF93CDB7DEB72C970FB6F894DEBF0FBEFA
:102DD000CDBF4F83588769877A878B879C87CE01C1
:102DE00007960E943715882369F08A859B85892B71
:102DF00039F04F815885842F85238F3F09F071C0AA
:102E000016E05FC086E0FE013796DE011196019064
:102E10000D928A95E1F78A859B85892B89F38885B0
:102E20009F8189238F3F61F32091B40130E0C90174
:102E30000196877099274091B3014817190671F4DC
:102E40000E9456141092B4011092B30186E0E5EE90
:102E5000F1E0DF011D928A95E9F7D2CF96E0929FCB
:102E6000D001939FB00D1124AB54BE4FFE0131969B
:102E700001900D929A95E1F78093B4010E94A414F9
:102E8000BFCF819FC00111248B549E4F0E943715E4
:102E90008823E9F0E091B3011E9FF0011124EB5467
:102EA000FE4F4081518162817381848195810E94AE
:102EB00094148091B30190E00196877099278093D4
:102EC000B3018091B3019091B4018913DACF2C96AC
:102ED0000FB6F894DEBF0FBECDBFDF91CF911F912B
:102EE000089569857A858B859C850E94941488CF86
:102EF000EF92FF920F931F93CF93DF938C01892B57
:102F000089F0F12CEE24E394E8012196F8018491F4
:102F1000843709F457C0A0F4823009F43EC048F465
:102F20008130D1F0DF91CF911F910F91FF90EF9001
:102F300008959CEF980F9037A8F70E9490100AC050
:102F4000853709F44CC09CE7980F903758F78F7776
:102F50000E946C118E0116C00E5F1F4FFE018491FE
:102F600090E2980F983060F48770FE2D01C0FF0F3B
:102F70008A95EAF78F2F0E94261B0E944D1B02C0E4
:102F80000E9490108F2D815008F4BECFEFE9FFE032
:102F90003197F1F700C00000F6CF0E5F1F4FFE0122
:102FA000849190E2980F983050F48770FE2D01C004
:102FB000FF0F8A95EAF78F2F0E942C1BDECF0E940D
:102FC0006C11E0CF0E5F1F4FFE01C491C150D0F2D3
:102FD0008FE99FE00197F1F700C00000F7CF0E5F87
:102FE0001F4FFE01F490CECF089560934902709375
:102FF0004A0280934B0290934C020C944214CF935C
:10300000DF9300D000D0CDB7DEB769837A838B839E
:103010009C838091490290914A02A0914B02B09109
:103020004C0229813A814B815C81822B932BA42B0A
:10303000B52B8093490290934A02A0934B02B09320
:103040004C020F900F900F900F90DF91CF910C9446
:103050004214CF93DF9300D000D0CDB7DEB76983A1
:103060007A838B839C838091490290914A02A0913C
:103070004B02B0914C0229813A814B815C818223C1
:103080009323A423B5238093490290934A02A093EB
:103090004B02B0934C020F900F900F900F90DF9166
:1030A000CF910C944214CF93DF9300D000D0CDB7D2
:1030B000DEB769837A838B839C83809149029091E8
:1030C0004A02A0914B02B0914C0229813A814B8176
:1030D0005C8182279327A427B52780934902909388
:1030E0004A02A0934B02B0934C020F900F900F90A6
:1030F0000F90DF91CF910C944214109245021092E0
:10310000460210924702109248020C94421441E089
:1031100050E060E070E004C0440F551F661F771F49
:103120008A95D2F740934502509346026093470236
:10313000709348020C944214282F81E090E0A0E0A4
:10314000B0E004C0880F991FAA1FBB1F2A95D2F7B1
:1031500040914502509146026091470270914802A9
:10316000842B952BA62BB72B809345029093460278
:10317000A0934702B09348020C94421441E050E0FF
:1031800060E070E004C0440F551F661F771F8A95EA
:10319000D2F7409550956095709580914502909139
:1031A0004602A0914702B091480284239523A623AA
:1031B000B7238093450290934602A0934702B093B1
:1031C00048020C944214282F81E090E0A0E0B0E087
:1031D00004C0880F991FAA1FBB1F2A95D2F74091E0
:1031E000450250914602609147027091480284273F
:1031F0009527A627B7278093450290934602A09370
:103200004702B09348020C944214CF93DF9300D04E
:1032100000D0CDB7DEB769837A838B839C8380919E
:10322000450290914602A0914702B091480229813F
:103230003A814B815C81822B932BA42BB52B8093FD
:10324000450290934602A0934702B09348020F9024
:103250000F900F900F90DF91CF910C944214CF9369
:10326000DF9300D000D0CDB7DEB769837A838B833C
:103270009C838091450290914602A0914702B091B3
:10328000480229813A814B815C8182239323A423C4
:10329000B5238093450290934602A0934702B093D2
:1032A00048020F900F900F900F90DF91CF910C94E8
:1032B0004214CF93DF9300D000D0CDB7DEB769833F
:1032C0007A838B839C838091450290914602A091E2
:1032D0004702B091480229813A814B815C81822763
:1032E0009327A427B5278093450290934602A09385
:1032F0004702B09348020F900F900F900F90DF910C
:10330000CF910C9442140895E82F24E1929FE00D90
:1033100011248E2F877041E001C0440F8A95EAF78F
:10332000E695E695E69585E0E89FF0011124E551E4
:10333000FE4F30E020E070E05191DF011197CB01AA
:10334000022E02C0969587950A94E2F781708195C6
:103350008527842385278C932F5F3F4F25303105A8
:1033600059F70895E82F24E1929FE00D11249E2F34
:103370009770E695E695E69585E0E89FF0011124C3
:10338000E551FE4F50E040E080E0219130E0092E11
:1033900002C0369527950A94E2F721703327042E50
:1033A00001C0220F0A94EAF7822B4F5F5F4F45302E
:1033B000510559F70895BF92CF92DF92EF92FF9295
:1033C0000F931F93CF93DF938C01C0904502D09051
:1033D0004602E0904702F0904802809149029091A5
:1033E0004A02A0914B02B0914C02C82AD92AEA2A7B
:1033F000FB2ACFE1D0E0BC2ED701C6010C2E04C0C1
:10340000B695A795979587950A94D2F780FD0EC03B
:10341000219788F7B12C8B2DDF91CF911F910F91C0
:10342000FF90EF90DF90CF90BF900895B8018C2F60
:103430000E949A0B019761F3EECFCF93DF93D82FC1
:10344000C92F0E94DB196D2F7C2FDF91CF910C9437
:103450009A0B1F93CF93DF93162FD72F9091B20122
:10346000992339F0862F972FDF91CF911F910C94DC
:103470001D1A882391F0862F972F0E94DB19C82FE1
:10348000682F812F9D2F0E948419612F7D2F8C2FF3
:10349000DF91CF911F910C949A0B862F972F0E944A
:1034A000B219C82FF2CF80914D02859585958595EB
:1034B000089580914D028770089598E0899F90014A
:1034C0001124622B60934D020C949C1890914D0234
:1034D0008095892380934D02282F277061F4282F2F
:1034E000082E000C330B9217130629F0859585954D
:1034F00085950C94BE18089590914D02977081E0C7
:1035000009F480E00895909112019923E1F09091DF
:10351000A30297FF18C0E82FE695E695E695EF31F0
:1035200039F12091000130910101E20FF32FF11DDB
:10353000877021E030E001C0220F8A95EAF781818F
:10354000822B818308952091000130910101F901BE
:1035500032969FEF40E05191851751F09F3F19F44B
:10356000511101C0942F4F5F4E31A9F79F3F09F4CD
:103570000895290F311D97FD3A95F9018283089529
:1035800090911201992301F19091A30297FF1CC021
:10359000E82FE695E695E695EF3139F120910001A7
:1035A00030910101E20FF32FF11D877021E030E02F
:1035B000A90102C0440F551F8A95E2F7CA01809500
:1035C0009181892381830895209100013091010127
:1035D000F9013296205E3F4F9191891303C0DF01BC
:1035E00011971C92E217F307B9F7089581E090E074
:1035F000E0910001F0910101E80FF91F108201969E
:1036000080329105A9F7089590917102982B9093BB
:1036100071020895982F909580917102892380936B
:103620007102089510927102089590917002982B82
:10363000909370020895982F90958091700289233D
:1036400080937002089510927002089590916F0215
:10365000982B90936F020895982F909580916F0208
:10366000892380936F02089510926F0208958093CA
:103670004E02089510924E0208952091000130915B
:103680000101F9013196205E3F4F80E09191911147
:103690008F5FE217F307D1F70895E0910001F091F1
:1036A0000101809171028083E0910001F09101019C
:1036B000808190917002892B8083E0910001F091CC
:1036C0000101808190916F02892B808390914E023D
:1036D000992361F0E0910001F09101018081892B33
:1036E00080830E943D1B811110924E028091000147
:1036F000909101010C944D0F6DEE7EEF90E080E013
:103700000E94112960E082E090E00E94FF2860E0C2
:1037100083E090E00E94FF2860E084E090E00E9457
:10372000FF2860E085E090E00C94FF2890E080E0C6
:103730000E94F9289C0181E02D3E3E4F09F080E077
:10374000089582E090E00C94F128682F82E090E0E8
:103750000C94FF2883E090E00C94F128682F83E01C
:1037600090E00C94FF2884E090E00C94F128682FFE
:1037700084E090E00C94FF288091A902843039F114
:103780001092730288E190E020E40FB6F894A895B7
:10379000809360000FBE2093600080E00E947B0B4E
:1037A00083B7817F846083BF83B7816083BF789450
:1037B000889583B78E7F83BF0FB6F894A8958091C4
:1037C0006000886180936000109260000FBE0895D1
:1037D00008950895CF93DF9300D000D00F92CDB716
:1037E000DEB70E94E81B0E94290E0E94E91B1D8281
:1037F0008D810E94220F672B682B692B71F48D81BC
:103800008F5F8D838730A1F780E00F900F900F902E
:103810000F900F90DF91CF91089581E0F6CF0E9435
:1038200056140E94410F0C947B0B1F921FB61F92DF
:1038300011248F939F93AF93BF9380917302811153
:1038400013C080919F029091A002A091A102B0911B
:10385000A2024196A11DB11D80939F029093A002E8
:10386000A093A102B093A202BF91AF919F918F91BB
:103870001F901FBE1F90189582E084BD93E095BDF8
:103880009AEF97BD80936E0008952FB7F8948091BA
:103890009F029091A002A091A102B091A2022FBF1D
:1038A0000895CF92DF92EF92FF929C014FB7F89468
:1038B00080919F029091A002A091A102B091A202DA
:1038C0004FBF6C017D01EE24FF24A90170E060E090
:1038D000C416D506E606F70638F0821B930BFF9058
:1038E000EF90DF90CF9008950197F7CF1F921FB60A
:1038F0001F9211248F939F93AF93BF9380919F0248
:103900009091A002A091A102B091A2020196A11DE6
:10391000B11D80939F029093A002A093A102B09347
:10392000A202BF91AF919F918F911F901FBE1F90D8
:1039300018950E948C24F8942FEF87EA91E6215085
:1039400080409040E1F700C0000087E090EBDC0190
:103950008093B2029093B302A093B402B093B502E5
:1039600088E19CE00FB6F894A895809360000FBEA4
:1039700090936000FFCFAF92BF92CF92DF92EF9211
:10398000FF920F931F93CF93C0E0A82EB12C8C2FE2
:103990000E94220F6B017C0110E000E0D701C601FC
:1039A000002E04C0B695A795979587950A94D2F7EF
:1039B00080FF13C0602F7C2F80E00E947E0BA81632
:1039C000B90659F481E0CF911F910F91FF90EF90CC
:1039D000DF90CF90BF90AF9008950F5F1F4F0431DD
:1039E0001105E1F6CF5FC73091F680E0ECCFCF93C1
:1039F000C82F8CE20E94BB1C882321F08C2FCF9112
:103A00000C94BB1C80E0CF910895CF93DF9300D03E
:103A100000D0CDB7DEB70E94961B811102C00E9474
:103A20007C1B95E6998308C00E94290E8FE39CE9D0
:103A30000197F1F700C00000A981A150A983A1114D
:103A4000F3CF89E20E94F71C811110C18AE20E9423
:103A5000F71C81110E947C1B85E00E94F71C8111DC
:103A60000E94991C0E94A11B8093720287E00E9411
:103A7000F71C882371F08BE10E94F71C882309F45E
:103A8000D1C090917202892F8D7F91FF82608093C7
:103A90007202809172020E94A51B0E94B31B90E0EB
:103AA0009093A4028093A30280EE0E94F71C8823C7
:103AB00041F09091A302892F8E7F90FF81608093C7
:103AC000A30289E30E94F71C882341F09091A3028E
:103AD000892F8D7F91FF82608093A30282EE0E94E6
:103AE000F71C882341F09091A302892F8B7F92FFCE
:103AF00084608093A30286EE0E94F71C882341F025
:103B00009091A302892F877F93FF88608093A302FF
:103B100083EE0E94F71C882341F09091A302892F25
:103B20008F7E94FF80618093A30285E30E94F71C3F
:103B3000882341F09091A302892F8F7D95FF8062A9
:103B40008093A30281E30E94F71C882341F09091A7
:103B5000A302892F8F7B96FF80648093A30281E16B
:103B60000E94F71C882341F09091A302892F97FBB4
:103B700087F980588093A3028091A3020E94B71B0B
:103B800087E20E94F71C89838EE10E94F71C88233C
:103B900019F0B981B260B9838FE10E94F71C8823C4
:103BA00019F029812460298380E20E94F71C882370
:103BB00019F039813860398381E20E94F71C88232B
:103BC00019F049814061498382E20E94F71C8823F1
:103BD00019F059815062598383E20E94F71C8823AF
:103BE00019F089818064898384E20E94F71C88230C
:103BF000B1F199819068998389810E94AE1B3981C6
:103C0000232F30E050E040E029833A834B835C83EC
:103C1000CA01B9010F900F900F900F90DF91CF91D3
:103C20000C94F5178EE00E94F71C882339F09091D0
:103C30007202892F8B7F92FF846029CF80E10E94DE
:103C4000F71C90917202882329F0892F877F93FFB8
:103C500088601DCF892F8E7F90FF816018CFA9814A
:103C6000A111CACF0E94AA1B282FCBCF0F900F9073
:103C70000F900F90DF91CF9108958091760280FF91
:103C800012C06091050185E0689FB001112475950F
:103C900067957595679560387105A8F5611571058B
:103CA000A1F1862F089581FF09C06091050185E08B
:103CB000689FB001112475956795EDCF609105015E
:103CC00082FD0AC0809177028823D1F0909104018F
:103CD00060910501891728F085E0689FB0011124E3
:103CE000DACF869FB001112485E0869F9001879FDF
:103CF000300D1124692F70E0C9010E94C028CBCF7C
:103D000065E070E0CECF8FE7089581E0089580915F
:103D1000760280FF0CC06091030170E07595679595
:103D2000759567956115710549F1862F089581FF95
:103D300006C06091030170E075956795F3CF6091BF
:103D4000030182FD0BC0909177029923A1F060914D
:103D5000020180910301961738F0682F70E06038F7
:103D6000710500F38FE70895899FC001112470E069
:103D70000E94C028F4CF61E070E0D7CF81E00895C1
:103D8000803F31F40E943D1E819580937A02089510
:103D9000813F19F40E943D1EF8CF823F31F40E940A
:103DA0003D1E8195809379020895833F19F40E9406
:103DB0003D1EF8CF893F29F40E94871E80937B0225
:103DC00008958A3F21F40E94871E8195F7CF8B3F8B
:103DD00031F40E94871E819580937C0208958C3F68
:103DE00019F40E94871EF8CF843F31F48091780245
:103DF0008160809378020895853F21F48091780254
:103E00008260F7CF863F21F4809178028460F1CF01
:103E1000873F21F4809178028860EBCF883F21F4BE
:103E2000809178028061E5CF8D3F31F480917602F8
:103E300081608093760208958E3F21F4809176020E
:103E40008260F7CF8F3FB9F7809176028460F1CF1F
:103E500090917902803F41F480917A0287FD10921F
:103E60007A02992371F00895813F29F480917A02B2
:103E70001816ACF3F6CF823F81F497FFF2CF109281
:103E8000790280917A0290917B02892B90917C0239
:103E9000892B49F7109277020895833F19F4191678
:103EA00074F3DFCF893F39F480917B021816CCF68A
:103EB00010927B02D6CF8A3F29F480917B0287FF44
:103EC000D0CFF6CF8B3F39F480917C0287FFC9CFEA
:103ED00010927C02C6CF8C3F29F480917C02181688
:103EE000BCF3BFCF843F31F4809178028E7F809302
:103EF0007802B7CF853F21F4809178028D7FF7CF8C
:103F0000863F21F4809178028B7FF1CF873F21F4A7
:103F100080917802877FEBCF883F21F480917802EF
:103F20008F7EE5CF8D3F31F4809176028E7F809336
:103F3000760297CF8E3F21F4809176028D7FF7CF66
:103F40008F3F09F08ECF809176028B7FF0CF88E78C
:103F500092E00E94580F0E94451C90937502809336
:103F6000740208951F93CF93DF9300D000D000D048
:103F7000CDB7DEB780917402909175020E94511CFA
:103F8000AC01809177022091060130E0811106C0DA
:103F9000209107019AE0299F9001112442175307AD
:103FA00088F020917902A0917A02A98310917B0276
:103FB000B0917C02BE8321110FC09A2F912B9B2BB5
:103FC00009F0B2C026960FB6F894DEBF0FBECDBF83
:103FD000DF91CF911F9108958F3F19F08F5F8093EC
:103FE0007702121624F40E943D1E8093790280917C
:103FF000790287FF05C00E943D1E8195809379025A
:104000002981121624F40E943D1E80937A02809129
:104010007A0287FF05C00E943D1E819580937A0237
:1040200080917902882309F455C030917A023D834A
:10403000332309F44FC0282F880F330B440B550B43
:1040400029833A834B835C83CA01B9010E94C72745
:1040500023E333E343E35FE369837A838B839C83C6
:1040600069817A818B819C810E942B2869837A8364
:104070008B839C8369817A818B819C810E948F27AD
:10408000609379028D81082E000C990BAA0BBB0B53
:1040900089839A83AB83BC83BC01CD010E94C7276F
:1040A00023E333E343E35FE369837A838B839C8376
:1040B00069817A818B819C810E942B2869837A8314
:1040C0008B839C8369817A818B819C810E948F275D
:1040D00060937A02111624F40E94871E80937B025B
:1040E00080917B0287FF05C00E94871E8195809387
:1040F0007B029E81191624F40E94871E80937C0205
:1041000080917C0287FF05C00E94871E8195809365
:104110007C0226960FB6F894DEBF0FBECDBFDF91AE
:10412000CF911F910C94A71F8F3F09F057CF68CFF5
:1041300085E0E8E7F2E0DF011D928A95E9F7109249
:10414000770210927602089580919D020895CF9390
:10415000DF9300D00F92CDB7DEB72091A9022430B3
:1041600019F523E029838A839B832093E9008FEF4D
:104170009091E800815095FD06C095ED9A95F1F774
:1041800000008111F5CF8091E80085FF0DC050E05F
:1041900040E063E070E0CE0101960E94042380912C
:1041A000E8008E778093E8000F900F900F90DF91DA
:1041B000CF910895CF93DF9300D00F92CDB7DEB7A4
:1041C0009C018091A902843031F582E089832058D6
:1041D00031093B832A8383E08093E9008FEF90913C
:1041E000E800815095FD06C095ED9A95F1F7000025
:1041F0008111F5CF8091E80085FF0DC050E040E0CF
:1042000063E070E0CE0101960E9404238091E800F3
:104210008E778093E8000F900F900F90DF91CF91F1
:1042200008952091A9022430F1F422E02093E900BE
:104230002FEF3091E800215035FD06C035ED3A955D
:10424000F1F700002111F5CF2091E80025FF0BC008
:1042500050E040E065E070E00E9404238091E800B7
:104260008E778093E8000895CF93DF93D82FC92FDE
:104270008091A9028430F1F4909112019923E9F020
:104280009091A30297FF19C08093E9008FEF90915E
:10429000E800815095FD06C095E19A95F1F7000080
:1042A0008111F5CF8091E80050E040E060E270E0DD
:1042B00085FD1AC0DF91CF91089581E08093E900D8
:1042C0008FEF9091E800815095FD06C095ED9A958D
:1042D000F1F700008111F5CF8091E80085FFEACF6A
:1042E00050E040E068E070E08D2F9C2F0E94042396
:1042F0008091E8008E778093E80080E2ED2FFC2F1C
:10430000ADE7B2E001900D928A95E1F7D3CF8091AD
:10431000A802811109C00E948C240E94EE24809181
:10432000E20084608093E20008951092A80208954C
:10433000089508950C940F1C42E061EC81E00E9406
:10434000082442E061EC82E00E94082442E061EC33
:1043500083E00E94082442E261EC84E00C9408248B
:104360008091AB02893089F148F4823009F494C01D
:10437000833009F44FC0813041F008958A3009F448
:104380007BC08B3009F461C008958091AA02813A04
:1043900009F03FC08091E800877F8093E80080911A
:1043A000AE029091AF02892B61F460E28DE792E05A
:1043B00070E00E9453238091E8008B778093E8009F
:1043C000089560E090E080E0F3CF8091AA0281320E
:1043D00001F58091AE029091AF02009711F0039722
:1043E000C1F48091E800877F8093E8008091E80025
:1043F00082FF0BC08091F10080939D028091E800C4
:104400008B778093E8000C943C248091A902811161
:10441000EDCF08958091AA02813AD9F78091AE023A
:104420009091AF02892BA9F78091E800877F809354
:10443000E8008091E80080FFFCCF8091120180931A
:10444000F1008091E8008E77DCCF8091AA02813262
:1044500001F78091AE029091AF02892BD1F6809145
:10446000E800877F8093E8000E943C248091AC02A2
:10447000809312010C9456148091AA02813249F65D
:104480008091E800877F8093E8000E943C2480911F
:10449000AD0280939E0208958091AA02813A09F0AC
:1044A000B8CF8091E800877F8093E8008091E80092
:1044B00080FFFCCF80919E02C2CF84B7877F84BFEC
:1044C0000FB6F894A8958091600088618093600091
:1044D000109260000FBE80E880936100109261002E
:1044E0000E94900F0E948C240E94EE248091E20092
:1044F00084608093E20078940E9474270E94920F57
:1045000088E091E00E943C0F8091A902853019F06B
:104510000E94980FF9CF0E94BC1B8091A7028823AC
:1045200099F30E94EA1B882379F30E94EE22ECCFD4
:104530009C01DA01892F992783309105C1F068F435
:104540008130910509F445C0029761F48DE690E051
:1045500028E432E12D933C93089581329105E1F0F6
:10456000829739F190E080E030E020E0F3CFC9019C
:104570009927213059F08230910559F0E4E4F2E1B5
:10458000892B81F7849190E09F01E4CFECE2F2E186
:10459000F9CFE8E1F2E1F6CF643020F7E62FF0E062
:1045A000EE0FFF1FE65CFE4F2081318189E090E035
:1045B000D1CF6430B8F670E0FB01EE0FFF1FEE5C68
:1045C000FE4F20813181625D7E4FFB01808190E052
:1045D000C1CF82E190E025EB32E1BCCF84E189BD1F
:1045E00086E189BD09B400FEFDCF8091D8008F7DA2
:1045F0008093D8008091E00082608093E0008091F9
:10460000E00081FDFCCF0895AF92BF92CF92DF9280
:10461000FF920F931F93CF93DF936C01EB018A01FD
:104620000E945B24F82E811123C00115110539F079
:10463000F80180819181C81BD90BC80ED91EB12CFD
:10464000A12C2097A9F08091E80085FD22C08091DF
:10465000E8008E778093E80001151105A1F0F801BC
:1046600080819181A80EB91EB182A08285E0F82ECA
:104670008F2DDF91CF911F910F91FF90DF90CF9001
:10468000BF90AF9008950E945B248823D1F2F82E4A
:10469000EFCFF60181916F018093F1002197FFEF39
:1046A000AF1ABF0ACECFFC01CB012091B0023091EE
:1046B000B1022617370790F0009729F42091E800FF
:1046C0002E772093E80040E0009751F4411108C094
:1046D0008091E80082FF31C080E00895C901F3CFE6
:1046E0002091A9022223A9F12530A9F12091E80007
:1046F00023FD2DC02091E80022FDEACF2091E800A3
:1047000020FFE2CF2091F2003091F300009719F0E2
:104710002830310558F041E02830310509F040E0FB
:104720002091E8002E772093E800CECF419140936E
:10473000F10001972F5F3F4FE9CF8091A9028823B5
:1047400041F0853041F08091E80083FFC1CF81E0E6
:10475000089582E0089583E00895FC01CB01209143
:10476000B0023091B1022617370790F0009729F474
:104770002091E8002E772093E80040E0009751F464
:10478000411108C08091E80082FF32C080E00895A6
:10479000C901F3CF2091A9022223B1F12530B1F153
:1047A0002091E80023FD2EC02091E80022FDEACFF1
:1047B0002091E80020FFE2CF2091F2003091F30039
:1047C000009719F02830310558F041E028303105C4
:1047D00009F040E02091E8002E772093E800CECF4A
:1047E00044914093F100319601972F5F3F4FE8CFFE
:1047F0008091A902882341F0853041F08091E80042
:1048000083FFC0CF81E0089582E0089583E008959A
:10481000982F973028F08F708093E90081E00895F9
:104820009093E900242F762F50E0981731F0709183
:10483000EC002091ED005091F00021FD02C09F5F3F
:10484000E8CF3091EB003E7F3093EB003091ED00EC
:104850003D7F3093ED003091EB0031603093EB0001
:104860007093EC002093ED005093F0002091EE0047
:1048700027FDE5CF80E008958091AA0287FF13C04D
:104880008091E80082FF06C08091E8008B778093DA
:10489000E80004C08091A9028111F2CF08958091AF
:1048A000A9028823D9F38091E80080FFF8CF809196
:1048B000E8008E77ECCF2091E4003091E50095E69A
:1048C000A9012091EC00822F817020FF06C0809109
:1048D000E80080FF06C080E008952091E80022FDF6
:1048E0001AC08091A902882389F0853089F08091CF
:1048F000EB0085FD0FC02091E4003091E5004217E8
:104900005307F9F29150E1F684E0089582E00895AA
:1049100083E0089581E008950E94FD240E9405250A
:10492000E0EEF0E0808181608083E8EDF0E080815E
:104930008F77808319BCA7EDB0E08C918E7F8C932C
:1049400080818F7E80831092A80208950F931F9319
:10495000CF93DF930E94FD240E940525C8EDD0E08F
:1049600088818F77888388818068888388818F7D1C
:104970008883E7EDF0E080818068808319BC109225
:10498000A9021092A5021092A7021092A60200EEB0
:1049900010E0F80180818B7F80838881816088832B
:1049A00042E060E080E00E940824E1EEF0E08081D7
:1049B0008E7F8083E2EEF0E0808181608083808161
:1049C00088608083F80180818E7F80838881806108
:1049D0008883DF91CF911F910F910895E8EDF0E06A
:1049E00080818F7E8083E7EDF0E08081816080832D
:1049F00081E08093A8020C94A624E8EDF0E0808189
:104A00008C7F80831092E20008951092DA00109259
:104A1000E10008951F920F920FB60F9211240BB66A
:104A20000F922F933F934F935F936F937F938F9347
:104A30009F93AF93BF93EF93FF938091E10082FF29
:104A40000BC08091E20082FF07C08091E1008B7F64
:104A50008093E1000E9473278091DA0080FF19C0E3
:104A60008091D80080FF15C08091DA008E7F8093FE
:104A7000DA008091D90080FF96C084E189BD86E18B
:104A800089BD09B400FEFDCF81E08093A9020E9498
:104A900087218091E10080FF19C08091E20080FFB2
:104AA00015C08091E2008E7F8093E2008091E20049
:104AB00080618093E2008091D80080628093D8006A
:104AC00019BC85E08093A9020E9499218091E100A0
:104AD00084FF29C08091E20084FF25C084E189BD64
:104AE00086E189BD09B400FEFDCF8091D8008F7D9D
:104AF0008093D8008091E1008F7E8093E1008091C7
:104B0000E2008F7E8093E2008091E20081608093DA
:104B1000E2008091A502882309F44BC084E08093D1
:104B2000A9020E949A218091E10083FF29C080910F
:104B3000E20083FF25C08091E100877F8093E10040
:104B400082E08093A9021092A5028091E1008E7FFD
:104B50008093E1008091E2008E7F8093E20080915B
:104B6000E20080618093E20042E060E080E00E9429
:104B700008248091F00088608093F0000E949821C2
:104B8000FF91EF91BF91AF919F918F917F916F9125
:104B90005F914F913F912F910F900BBE0F900FBEE1
:104BA0000F901F90189519BC1092A9020E94952190
:104BB00070CF8091E30087FD02C081E0B0CF83E039
:104BC000AECF1F920F920FB60F9211240BB60F9219
:104BD0002F933F934F935F936F937F938F939F9305
:104BE000AF93BF93CF93DF93EF93FF93D091E900FF
:104BF000DF708091EC00C82FC17080FDC0E810927A
:104C0000E9008091F000877F8093F00078940E9403
:104C100029261092E9008091F00088608093F000CE
:104C2000CD2BCF70C093E900FF91EF91DF91CF9131
:104C3000BF91AF919F918F917F916F915F914F91B4
:104C40003F912F910F900BBE0F900FBE0F901F90B2
:104C500018951F93CF93DF93CDB7DEB7AA970FB602
:104C6000F894DEBF0FBECDBF8AEA92E0FC01019648
:104C70002091F100208322E0823B9207B9F70E9445
:104C8000B0218091E80083FF16C18091AA02909123
:104C9000AB029A3008F00FC1E92FF0E0E55BF64D6A
:104CA0000C94D428803881F0823809F004C18091B6
:104CB000AE028F708093E9008091EB0085FB88271E
:104CC00080F91092E90006C08091A6029091A70297
:104CD000911182609091E800977F9093E800809313
:104CE000F1001092F1008091E8008E77E0C08823F7
:104CF00009F4CEC0823009F0DEC08091AC0281118F
:104D0000D1C08091AE028F7009F4D5C08093E900C4
:104D10002091EB0020FFC6C0933031F48091EB006E
:104D200080628093EB00BEC09091EB009061909305
:104D3000EB0021E030E001C0220F8A95EAF72093D2
:104D4000EA001092EA008091EB008860EACF8111BE
:104D5000B2C01091AC021F778091E3008078812B64
:104D60008093E3008091E800877F8093E8000E94B1
:104D70003C248091E80080FFFCCF8091E3008068B4
:104D80008093E30082E0111183E08093A90293C035
:104D90008058823008F08FC08091AC029091AD02B3
:104DA0008C3D23E09207A1F583E08A838AE2898320
:104DB0004FB7F894DE01139620E03EE051E2E32F76
:104DC000F0E050935700E49120FF03C0E295EF70AC
:104DD0003F5FEF708E2F90E0EA30C0F0C7968D9362
:104DE0009D932F5F243159F74FBF8091E800877F53
:104DF0008093E8006AE270E0CE0101960E9453239E
:104E00008091E8008B778093E80055C0C096E7CF8B
:104E1000AE014F5F5F4F6091AE020E949822BC01CD
:104E2000892B09F448C08091E800877F8093E800CF
:104E300089819A810E94AD23E3CF8038E1F580918A
:104E4000E800877F8093E8008091A5028093F100BD
:104E50004ACF811130C09091AC02923060F58091C0
:104E6000E800877F8093E8009093A5020E943C248D
:104E70008091A502882311F084E005C08091E300B1
:104E800087FDFACF81E08093A9020E949C2113C084
:104E90008091AC02813079F481E0933009F080E0B8
:104EA0008093A7021092E9008091E800877F8093A9
:104EB000E8000E943C248091E80083FF0AC08091B2
:104EC000E800877F8093E8008091EB008062809308
:104ED000EB00AA960FB6F894DEBF0FBECDBFDF91F0
:104EE000CF911F9108950895CF938091A9028823AF
:104EF000A1F0C091E900CF709091EC00892F8170F2
:104F000090FD80E8C82B1092E9008091E80083FDB5
:104F10000E942926CF70C093E900CF9108950E9486
:104F200096276894B1110C94252808950E940A28A8
:104F300088F09F5798F0B92F9927B751B0F0E1F05A
:104F4000660F771F881F991F1AF0BA95C9F714C00A
:104F5000B13091F00E942428B1E008950C942428E7
:104F6000672F782F8827B85F39F0B93FCCF3869543
:104F700077956795B395D9F73EF4909580957095A0
:104F800061957F4F8F4F9F4F0895E89409C097FB1D
:104F90003EF490958095709561957F4F8F4F9F4F10
:104FA0009923A9F0F92F96E9BB279395F695879554
:104FB00077956795B795F111F8CFFAF4BB0F11F417
:104FC00060FF1BC06F5F7F4F8F4F9F4F16C08823BE
:104FD00011F096E911C0772321F09EE8872F762FF4
:104FE00005C0662371F096E8862F70E060E02AF035
:104FF0009A95660F771F881FDAF7880F9695879521
:1050000097F9089557FD9058440F551F59F05F3F89
:1050100071F04795880F97FB991F61F09F3F79F0DA
:1050200087950895121613061406551FF2CF46955C
:10503000F1DF08C0161617061806991FF1CF8695DE
:105040007105610508940895E894BB2766277727C2
:10505000CB0197F908950E943E280C94AF280E9436
:10506000A12838F00E94A82820F0952311F00C9474
:1050700098280C949E2811240C9425280E9402281C
:1050800070F3959FC1F3950F50E0551F629FF0019B
:10509000729FBB27F00DB11D639FAA27F00DB11DB4
:1050A000AA1F649F6627B00DA11D661F829F22273D
:1050B000B00DA11D621F739FB00DA11D621F839FC4
:1050C000A00D611D221F749F3327A00D611D231F9A
:1050D000849F600D211D822F762F6A2F11249F57E8
:1050E00050409AF0F1F088234AF0EE0FFF1FBB1FEB
:1050F000661F771F881F91505040A9F79E3F5105AA
:1051000080F00C9498280C9425285F3FE4F3983E97
:10511000D4F3869577956795B795F795E7959F5F53
:10512000C1F7FE2B880F911D9695879597F90895E5
:1051300097F99F6780E870E060E008959FEF80EC4A
:10514000089500240A9416161706180609060895ED
:1051500000240A9412161306140605060895092E53
:105160000394000C11F4882352F0BB0F40F4BF2BC2
:1051700011F460FF04C06F5F7F4F8F4F9F4F089502
:1051800097FB072E16F4009407D077FD09D00E94F4
:10519000DD2807FC05D03EF4909581959F4F08953A
:1051A000709561957F4F0895EE0FFF1F0024001C3E
:1051B0000BBE0790F691E02D0994AA1BBB1B51E191
:1051C00007C0AA1FBB1FA617B70710F0A61BB70B77
:1051D000881F991F5A95A9F780959095BC01CD011C
:1051E0000895F999FECF92BD81BDF89A992780B5AF
:1051F0000895A8E1B0E042E050E00C941929262F70
:10520000F999FECF92BD81BDF89A019700B40216BC
:1052100039F01FBA20BD0FB6F894FA9AF99A0FBE6A
:1052200008950196272F0E9400290C94FF28DC0185
:10523000CB01FC01F999FECF06C0F2BDE1BDF89AA1
:10524000319600B40D9241505040B8F70895F8944B
:10525000FFCFE60AF20AF60AFA0AFE0A020B060B6A
:105260000A0B0E0B120B160B1A0B1E0B220B260B26
:105270002A0B2E0B320B01120112591259129D12D8
:10528000B91231123112C41231128C138C13F7136C
:10529000311231120014522677265B2777265B27BE
:0A52A000A726C8265B271D27292733
:1052AA004F022808140A321EA42034211121DA20C0
:1052BA00A720013760616263646566679091929383
:1052CA0094959697C0C1C230313233343536404D49
:1052DA003639831336130013C7125A1273128C12FB
:0252EA00A5120B
:00000001FF
