:100000000C943C0B0C94830B0C94830B0C94830B7F
:100010000C94830B0C94830B0C94830B0C94830B28
:100020000C94830B0C94830B0C94BC250C948F269E
:100030000C94291D0C94830B0C94830B0C94830B50
:100040000C94830B0C94830B0C94830B0C94830BF8
:100050000C94830B0C94911D0C94830B0C94830BC8
:100060000C94830B0C94830B0C94830B0C94830BD8
:100070000C94830B0C94830B0C94830B0C94830BC8
:100080000C94830B0C94830B0C94830B0C94830BB8
:100090000C94830B0C94830B0C94830B0C94830BA8
:1000A0000C94830B0C94830B0C94830B290000009D
:1000B0003A003B003C003D0000003E003F00400095
:1000C000410042004300440045004600470048000C
:1000D0000000000000000000000000000000000020
:1000E0000000000000000000000000000000000010
:1000F0000000000000000000000000000000000000
:10010000000000000000000035001E001F0020005D
:1001100021002200230024002500260027002D00B6
:100120002E0000002A0049004A004B000000530046
:100130005400550056002B00000014001A0008005F
:10014000150017001C0018000C00120013002F00EF
:10015000300031004C004D004E0000005F00600098
:100160004200570039000000040016000700090093
:100170000A000B000D000E000F00330034002800B1
:10018000000000000000000000005C005D005E0058
:1001900000000000E1001D001B0006001900050022
:1001A000110010003600370038000000E1000000A8
:1001B000000052000000000059005A005B00580087
:1001C000E000E3000000E200000000002C0000005E
:1001D00000000000E200E30000007600E0005000B4
:1001E00051004F00000062000000630000000100A9
:1001F00000000100010001000100000001000100F9
:1002000001000100010001000100010001000100E6
:1002100001000000000000000000000000000000DD
:1002200000000000000000000000000000000000CE
:1002300000000000000000000000000000000000BE
:1002400000000000000000000000010001000100AB
:100250000100010001000100010001000100010096
:100260000100010000000100010001000100000088
:100270000100010001000100010000000100010077
:100280000100010001000100010001000100010066
:100290000100010001000100010001000000010057
:1002A0000100010001000100000001000100010047
:1002B0000100010001000100010001000100010036
:1002C000010000000000000000000000010001002B
:1002D0000100000000000100010001000100010018
:1002E0000100010001000100010001000000010007
:1002F00000000000010000000000010001000100FA
:1003000001000100010000000100000000000100E8
:1003100000000000000001000100000001000100D9
:1003200001000100010000000100000001000000C8
:1003300001000000010001000100010000000100B7
:1003400001000100010001000100010001000100A5
:10035000010001000000000000000000000000009B
:10036000000000000000000000000000000000008D
:10037000000000000000000000000000000000007D
:10038000000000000000000000000000010001006B
:100390000100010001000100010001000100010055
:1003A0000100010001000000010001000100010046
:1003B0000000010001000100010001000000010037
:1003C0000100010001000100010001000100010025
:1003D0000100010001000100010001000100000016
:1003E0000100010001000100010000000100010006
:1003F00001000100010001000100010001000100F5
:1004000001000100000000000000000000000100E9
:1004100001000100000000000100010001000100D6
:1004200001000100010001000100010001000000C5
:1004300001000000000001000000000001000100B8
:1004400001000100010001000000010000000000A7
:100450000100000000000000010001000000010098
:100460000100010001000100000001000000010086
:100470000000010000000100010001000100000077
:100480000100010001000100010001000100010064
:100490000100010001000000000000000000000059
:1004A000000000000000000000000000000000004C
:1004B000000000000000000000000000000000003C
:1004C000000000000000000000000000000001002B
:1004D0000100010001000100010001000100010014
:1004E0000100010001000100000001000100010005
:1004F00001000000010001000100010001000000F6
:1005000001000100010001000100010001000100E3
:1005100001000100010001000100010001000100D3
:1005200000000100010001000100010000000100C5
:1005300001000100010001000100010001000100B3
:1005400001000100010000000000000000000000A8
:100550000100010001000000000001000100010095
:100560000100010001000100010001000100010083
:100570000000010000000000010000000000010078
:100580000100010001000100010000000100000065
:100590000000010000000000000001000100000058
:1005A0000100010001000100010000000100000045
:1005B0000100000001000000010001000100010035
:1005C0000000010001000100010001000100010024
:1005D0000100010001000100000000000000000017
:1005E000000000000000000000000000000000000B
:1005F00000000000000000000000000000000000FB
:1006000000000000000000000000000000000000EA
:1006100001000100010001000100010001000100D2
:1006200001000100010001000100000001000100C3
:1006300001000100000001000100010001000100B3
:1006400000000100010001000100010001000100A3
:100650000100010001000100010001000100010092
:100660000100000001000100010001000100000084
:100670000100010001000100010001000100010072
:100680000100010001000100000000000000000066
:100690000000010001000100000000000100010055
:1006A0000100010001000100010001000100010042
:1006B0000100000001000000000001000000000037
:1006C0000100010001000100010001000000010023
:1006D0000000000001000000000000000100010017
:1006E0000000010001000100010001000000010004
:1006F00000000100000001000000010001000100F5
:1007000001000000010001000100010001000100E2
:1007100001000100010001000100000000000000D4
:1007200000000000000000000000000000000000C9
:1007300000000000000000000000000000000000B9
:1007400000000000000000000000000000000000A9
:100750000000010001000100010001000100010092
:100760000100010001000100010001000000010082
:100770000100010001000000010001000100010072
:100780000100000001000100010001000100010062
:100790000100010001000100010001000100010051
:1007A0000100010000000100010001000100010042
:1007B0000000010001000100010001000100010032
:1007C0000100010001000100010000000000000024
:1007D0000000000001000100010000000000010015
:1007E0000100010001000100010001000100010001
:1007F00001000100000001000000000001000000F5
:1008000000000100010001000100010001000000E2
:1008100001000000000001000000000000000100D5
:1008200001000000010001000100010001000000C2
:1008300001000000010000000100000001000100B3
:1008400001000100000001000100010001000100A1
:100850000100010001000100010001000000000092
:100860000000000000000000000000000000000088
:100870000000000000000000000000000000000078
:100880000000000000000000000000000000000068
:100890000000000001000100010001000100010052
:1008A0000100010001000100010001000100000041
:1008B0000100010001000100000001000100010031
:1008C0000100010000000100010001000100010021
:1008D0000100010001000100010001000100010010
:1008E0000100010001000000010001000100010001
:1008F00001000000010001000100010001000100F1
:1009000001000100010001000100010000000000E1
:1009100000000000000001000100010000000000D4
:1009200001000100010001000100010001000100BF
:1009300001000100010000000100000000000100B2
:1009400000000000010001000100010001000100A1
:100950000000010000000000010000000000000095
:100960000100010000000100010001000100010080
:100970000000010000000100000001000000010073
:100980000100010001000000010001000100010060
:100990000100010001000100010001000100000050
:1009A0000000000000000000000000000000000047
:1009B0000000000000000000000000000000000037
:1009C0000000000000000000000000000000000027
:1009D0000000000000000100010001000100010012
:1009E00001000100010001000100010001000100FF
:1009F00000000100010001000100000001000100F1
:100A000001000100010000000100010001000100DF
:100A100001000100010001000100010001000100CE
:100A200001000100010001000000010001000100BF
:100A300001000100000001000100010001000100AF
:100A4000010001000100010001000100010000009F
:100A50000000000000000000010001000100000093
:100A6000000001000100010001000100010001007F
:100A70000100010001000100000001000000000071
:100A80000100000000000100010001000100010060
:100A90000100000001000000000001000000000053
:100AA0000000010001000000010001000100010040
:100AB0000100000001000000010000000100000032
:100AC000010001000100010000000100010001001F
:100AD000010001000100010001000100010001000E
:100AE0000000000000000000000000000000000006
:100AF00000000000000000000000000000000000F6
:100B000000000000000000000000000000000000E5
:100B100000000000000000000100010001000100D1
:100B200001000100010001000100010001000100BD
:100B300001000000010001000100010000000100AF
:100B4000010001000100010000000100010001009E
:100B5000010001000100010001000100010001008D
:100B6000010001000100010001000000010001007E
:100B7000010001000100000001000100010001006E
:100B8000010001000100010001000100010001005D
:100B90000000000000000000000001000100010052
:100BA000000000000100010001000100010001003F
:100BB000010001000100010001000000010000002F
:100BC0000000010000000000010001000100010020
:100BD0000100010000000100000000000100000011
:100BE0000000000001000100000001000100010000
:100BF00001000100000001000000010000000100F0
:100C000000000100010001000100000001000100DE
:100C100001000100010001000100010001000100CC
:100C200001000000000000000000000000000000C3
:100C300000000000000000000000000000000000B4
:100C400000000000000000000000000000000000A4
:100C50000000000000000000000001000100010091
:100C6000010001000100010001000100010001007C
:100C7000010001000000010001000100010000006E
:100C8000010001000100010001000000010001005D
:100C9000010001000100010001000100010001004C
:100CA000010001000100010001000100000001003D
:100CB000010001000100010000000100010001002D
:100CC000010001000100010001000100010001001C
:100CD0000100000000000000000000000100010011
:100CE00001000000000001000100010001000100FE
:100CF00001000100010001000100010000000100ED
:100D000000000000010000000000010001000100DF
:100D100001000100010000000100000000000100CE
:100D200000000000000001000100000001000100BF
:100D300001000100010000000100000001000000AE
:100D4000010000000100010001000100000001009D
:100D5000010001000100010001000100010001008B
:100D60000100010000000000000000000000000081
:100D70000000000000000000000000000000000073
:100D80000000000000000000000000000000000063
:100D90000000000000000000000000000100010051
:100DA000010001000100010001000100010001003B
:100DB000010001000100000001000100010001002C
:100DC000000001000100010001000100000001001D
:100DD000010001000100010001000100010001000B
:100DE00001000100010001000100010001000000FC
:100DF00001000100010001000100000001000100EC
:100E000001000100010001000100010001000100DA
:100E100001000100000000000000000000000100CF
:100E200001000100000000000100010001000100BC
:100E300001000100010001000100010001000000AB
:100E4000010000000000010000000000010001009E
:100E5000010001000100010000000100000000008D
:100E6000010000000000000001000100000001007E
:100E7000010001000100010000000100000001006C
:100E8000000001000000010001000100010000005D
:100E9000010001000100010001000100010001004A
:100EA000010001000100000000000000000000003F
:100EB0000000000000000000000000000000000032
:100EC0000000000000000000000000000000000022
:100ED0000000000000000000000000000000010011
:100EE00001000100010001000100010001000100FA
:100EF00001000100010001000000010001000100EB
:100F000001000000010001000100010001000000DB
:100F100001000100010001000100010001000100C9
:100F200001000100010001000100010001000100B9
:100F300000000100010001000100010000000100AB
:100F40000100010001000100010001000100010099
:100F5000010001000100000000000000000000008E
:100F6000010001000100000000000100010001007B
:100F70000100010001000100010001000100010069
:100F8000000001000000000001000000000001005E
:100F9000010001000100010001000000010000004B
:100FA000000001000000000000000100010000003E
:100FB000010001000100010001000000010000002B
:100FC000010000000100000001000100010001001B
:100FD000000001000100010001000100010001000A
:100FE00001000100010001000000000000000000FD
:100FF00000000000000000000000000000000000F1
:1010000000000000000000000000000000000000E0
:1010100000000000000000000000000000000000D0
:1010200001000100010001000100010001000100B8
:1010300001000100010001000100000001000100A9
:101040000100010000000100010001000100010099
:101050000000010001000100010001000100010089
:101060000100010001000100010001000100010078
:10107000010000000100010001000100010000006A
:101080000100010001000100010001000100010058
:10109000010001000100010000000000000000004C
:1010A000000001000100010000000000010001003B
:1010B0000100010001000100010001000100010028
:1010C000010000000100000000000100000000001D
:1010D0000100010001000100010001000000010009
:1010E00000000000010000000000000001000100FD
:1010F00000000100010001000100010000000100EA
:1011000000000100000001000000010001000100DA
:1011100001000000010001000100010001000100C8
:1011200001000100010001000100000000000000BA
:1011300000000000000000000000000000000000AF
:10114000000000000000000000000000000000009F
:10115000000000000000000000000000000000008F
:101160000000010001000100010001000100010078
:101170000100010001000100010001000000010068
:101180000100010001000000010001000100010058
:101190000100000001000100010001000100010048
:1011A0000100010001000100010001000100010037
:1011B0000100010000000100010001000100010028
:1011C0000000010001000100010001000100010018
:1011D000010001000100010001000000000000000A
:1011E00000000000010001000100000000000100FB
:1011F00001000100010001000100010001000100E7
:1012000001000100000001000000000001000000DA
:1012100000000100010001000100010001000000C8
:1012200001000000000001000000000000000100BB
:1012300001000000010001000100010001000000A8
:101240000100000001000000010000000100010099
:101250000100010000000100010001000100010087
:101260000100010001000100010001000000000078
:10127000000000000000000000000000000000006E
:10128000000000000000000000000000000000005E
:10129000000000000000000000000000000000004E
:1012A0000000000001000100010001000100010038
:1012B0000100010001000100010001000100000027
:1012C0000100010001000100000001000100010017
:1012D0000100010000000100010001000100010007
:1012E00001000100010001000100010001000100F6
:1012F00001000100010000000100010001000100E7
:1013000001000000010001000100010001000100D6
:1013100001000100010001000100010000000000C7
:1013200000000000000001000100010000000000BA
:1013300001000100010001000100010001000100A5
:101340000100010001000000010000000000010098
:101350000000000001000100010001000100010087
:10136000000001000000000001000000000000007B
:101370000100010000000100010001000100010066
:101380000000010000000100000001000000010059
:101390000100010001000000010001000100010046
:1013A0000100010001000100010001000100000036
:1013B000000000000000000000000000000000002D
:1013C000000000000000000000000000000000001D
:1013D000000000000000000000000000000000000D
:1013E00000000000000001000100010001000100F8
:1013F00001000100010001000100010001000100E5
:1014000000000100010001000100000001000100D6
:1014100001000100010000000100010001000100C5
:1014200001000100010001000100010001000100B4
:1014300001000100010001000000010001000100A5
:101440000100010000000100010001000100010095
:101450000100010001000100010001000100000085
:101460000000000000000000010001000100000079
:101470000000010001000100010001000100010065
:101480000100010001000100000001000000000057
:101490000100000000000100010001000100010046
:1014A0000100000001000000000001000000000039
:1014B0000000010001000000010001000100010026
:1014C00001000000010000000100000012036B0099
:1014D0006500790062006F00610072006400000026
:1014E000160371006D006B006200750069006C00EE
:1014F00064006500720000000403090409026D0025
:10150000040100A0FA0904000001030101000921FF
:10151000110100012240000705810308000A0904A7
:1015200001000103010200092111010001224D0007
:101530000705820308000A090402000103000000F5
:101540000921110100012236000705830308000A62
:101550000904030001030000000921110100012218
:10156000390007058403200001120110010000006A
:1015700008EDFE606001000102000105010906A1FD
:1015800001050719E029E715002501950875018176
:101590000205081901290595057501910295017546
:1015A0000391010507190029F71500250195F87524
:1015B000018102C005010980A101850216010026F2
:1015C00003001A81002A8300751095018100C0056F
:1015D0000C0901A1018503160100269C021A0100D5
:1015E0002A9C02751095018100C005010902A10124
:1015F0000901A10005091901290515002501950515
:1016000075018102950175038101050109300931D8
:101610001581257F95027508810609381581257F7A
:10162000950175088106050C0A38021581257F95FC
:101630000175088106C0C005010906A10105071949
:10164000E029E715002501950875018102950175CE
:101650000881010508190129059505750191029573
:1016600001750391010507190029FF150026FF00E8
:10167000950675088100C00011241FBECFEFDAE087
:10168000DEBFCDBF04B603FE27C08091C502909196
:10169000C602A091C702B091C8028730904BA74004
:1016A000B04BD1F41092C5021092C6021092C7023C
:1016B0001092C80214BE84B7877F84BF0FB6F89417
:1016C000A89580916000886180936000109260000E
:1016D0000FBEE0E0F8E3099511E0A0E0B1E0E6EA32
:1016E000F3E502C005900D92A634B107D9F722E0C8
:1016F000A6E4B1E001C01D92A53CB207E1F70E944B
:101700000B230C94D1290C94000090E080E0089504
:101710000895089581E00895089581E008950C9456
:101720008A0B0E94A0152FEF84E39CE0215080409B
:101730009040E1F700C000000C94B61DFF920F939B
:101740001F93CF93DF938C01FC01C081D1818091E5
:10175000B60181113FC082818823B9F1CE010E9478
:10176000071BF82E682FCE010E94AD1ABE018F2DE7
:101770000E94E50CEC01B8010E948F0B882309F44C
:101780004AC0B801CE010E94F50E882309F443C077
:10179000C531F0E7DF0718F5C23080E7D80708F059
:1017A0004BC0C115E0E7DE0789F1C130D047D1F168
:1017B00081E08093480180934901C801DF91CF9176
:1017C0001F910F91FF900C948D0BCE010E94DC1A9B
:1017D000F82ECCCFCE010E94071BBE01C9CFCC335F
:1017E00080E7D80709F4ACC0CD33D04709F7F8013A
:1017F0008281882309F4CBC0109249010E945B1DAD
:10180000909347018093460180E2A7C0F80182814E
:1018100081110E94910B80E0DF91CF911F910F9178
:10182000FF900895F80182818823A9F380918502B1
:10183000816080938502EFCFF8018281882309F4CB
:10184000BCCF0E94B81C811102C00E949E1C0E9445
:10185000D51C90E09093B7028093B602FE01E3504E
:10186000F0478091B6028160E231F105C8F4E55C91
:10187000F34F0C9481294D0C590C5D0C610C650CD7
:10188000690C6D0C710C750C790C7D0C810C850C40
:10189000890C8D0C910C950C990C8091B60282608C
:1018A0008093B6028091B6020E94D91C0E94A015B6
:1018B000B2CF8091B6028460F3CF8091B602886087
:1018C000EFCF8091B6028061EBCF8091B60280624B
:1018D000E7CF8091B6028064E3CF8091B602806842
:1018E000DFCF8091B6028460EACF8091B6028E7F0E
:1018F000D7CF8091B6028D7FD3CF8091B6028B7FF8
:10190000CFCF8091B602877FCBCF8091B6028F7EFA
:10191000C7CF8091B6028F7DC3CF8091B6028F7BF7
:10192000BFCF8091B6028F77BBCF8091B6028B7FFD
:10193000EACF9091B602892F97FB87F98058B0CFF4
:10194000F8018281882361F0109248010E945B1D9A
:10195000909347018093460182E00E942A135BCF57
:101960008091480181110FC08091460190914701FB
:101970000E94671D883C910530F486E20E94FF11A9
:1019800086E20E94DB1282E00E94311344CF8091F4
:10199000490181110FC080914601909147010E9439
:1019A000671D883C910530F487E20E94FF1187E2B1
:1019B0000E94DB1280E2E8CF0C94440F0C94460F97
:1019C0000C948C0B0C94E00C0895972F70E027E199
:1019D000929F600D711D1124FB0191EA899FE00D1A
:1019E000F11D1124EE0FFF1FE455FF4F85919491D7
:1019F0000895FC01EE0FFF1FE453FB4E8591949177
:101A000008950E94E50C0E94740E811520E492074F
:101A100008F08DC0811540E3940708F0E8C0803ECF
:101A2000910508F071C0803C910508F0CCC0883A5F
:101A3000910580F4853A910508F0CAC0813091057E
:101A400009F46EC020F08430910508F069C090E080
:101A500080E008958D3B9105D0F7883A910509F40F
:101A600004C1893A910509F403C18A3A910509F440
:101A700002C18B3A910509F401C18C3A910509F430
:101A800000C18B3B910509F4FFC08C3B910509F423
:101A9000FEC08D3A910509F4FDC0803B910509F423
:101AA000FCC08E3A910509F4FBC08F3A910509F408
:101AB000FAC0813B910509F4F9C0823B910509F414
:101AC000F8C0833B910509F4F7C0843B910509F404
:101AD000F6C0853B910509F4F5C0863B910509F4F4
:101AE000F4C0873B910509F4F3C0883B910509F4E4
:101AF000F2C0893B910509F4F1C08A3B910509F4D4
:101B0000F0C080E094E408958F3F910509F048F417
:101B1000803F910508F067C0883E910508F097CF97
:101B20000895811520E2920708F05FC0089581159D
:101B300043E5940760F5811522E5920708F062C03D
:101B4000811541E5940708F058C0811520E59207FA
:101B500008F450C09C0154E0369527955A95E1F75A
:101B6000922F9370482F437021E030E002C0220F83
:101B7000331F4A95E2F73C68392B8695869583702A
:101B800040E2849FC0011124822B932B089581157C
:101B900045E5940750F4811524E5920708F446C002
:101BA000982F8827846F906A0895811546E59407D9
:101BB00008F450C09C0130569F702115304108F048
:101BC00046CF90620895805C91090E94F90C0895B7
:101BD000853A910509F443C0863A910509F042C05F
:101BE00082E890E40895906508959F70EECF99275C
:101BF000906C08959F70906A0895982F8827816F40
:101C0000906A0895AC014370552721E030E002C08E
:101C1000220F331F4A95E2F78695869540E2849F0E
:101C2000C0011124822B932B9C680895AC01437052
:101C3000552721E030E002C0220F331F4A95E2F71A
:101C40008695869540E2849FC0011124822B932BB8
:101C50009A680895982F882788279F71B2CF81E8C6
:101C600090E4089583E890E4089582EE94E4089562
:101C700089EE94E408958AEE94E4089585EB94E463
:101C8000089586EB94E4089583EB94E4089584EB3F
:101C900094E4089587EB94E408958CEC94E408951B
:101CA0008DEC94E4089583E895E408958AE895E43A
:101CB000089582E995E4089584E995E4089581E220
:101CC00096E4089583E296E4089584E296E4089504
:101CD00085E296E4089586E296E4089587E296E424
:101CE00008958AE296E41CCF8238910549F1B0F458
:101CF0008133910509F45CC048F48932910509F4F7
:101D000052C08A32910509F458C00895853391056F
:101D100009F444C08933910599F00895833E9105F3
:101D200031F138F4803E910591F0823E9105B1F099
:101D30000895863E910511F1873E910541F1089580
:101D40002091B6022370C9F080EE90E008952091B2
:101D5000B60220FF12C089E390E008952091B602F8
:101D600022FF0BC024FF2EC090E080E00895209158
:101D7000B60222FD2AC024FDF7CF08952091B602B5
:101D800023FFFBCF24FDF0CF87EE90E00895209154
:101D9000B60223FFF0CF86EE90E008952091B602C0
:101DA00025FD16C008952091B60225FD14C00895A2
:101DB0002091B60226FD12C008952091B60226FD9C
:101DC00010C0089583EE90E0089582EE90E00895AB
:101DD00089E290E0089585E390E008958AE290E03A
:101DE000089581E390E0C9CF08950F931F93CF9397
:101DF0008C01FB018281811106C0C1E08C2FCF9143
:101E00001F910F910895C0915701C11125C005314F
:101E1000104799F70E94F40E81E0809357010E94C9
:101E20005B1D909356018093550110924A011092C8
:101E30004C0110924B0110924E0110924D011092E4
:101E4000500110924F0110925201109251011092C4
:101E5000540110925301D2CF8091550190915601B7
:101E60000E94671D883C910540F680914A01E82F49
:101E7000F0E0EE0FFF1FE55BFE4F118300838F5FE5
:101E800080934A01C0E0BACF0C94880B0C94890B64
:101E900085B7806885BF85B7806885BFAAE2B1E055
:101EA00061E070E08D91E82FE295EF70F0E041A1E4
:101EB0008F709B0101C0220F8A95EAF7922F9095AF
:101EC000942391A382A1822B82A381E0A133B8073E
:101ED00049F7A3E1B1E061E070E08D91E82FE29570
:101EE000EF70F0E041A18F709B0101C0220F8A9535
:101EF000EAF7922F9095942391A382A1822B82A33B
:101F000081E0AA32B80749F7E4E7F1E0A8E5B1E0DB
:101F100080E991E011921192119211921D921D92FD
:101F20001D921D928E179F07A9F70C94DC0C2F921F
:101F30003F924F925F926F927F928F929F92AF9259
:101F4000BF92CF92DF92EF92FF920F931F93CF93A6
:101F5000DF93CDB7DEB72C970FB6F894DEBF0FBE78
:101F6000CDBF88E5882E81E0982E2AE231E03A83C1
:101F7000298398868F8222242394312CC12CD12C42
:101F80007601C394AA24A394AF81B8854D905D9047
:101F90006D907C901397FD01108211821282138242
:101FA000A981BA818D91BA83A983E82FE295EF7058
:101FB000F0E091A18F70910102C0220F331F8A952A
:101FC000E2F73C832B83822F892B81A382A1B22E3F
:101FD000B0948B2182A330EA3A95F1F743E151E0C6
:101FE0005E834D8390E080E0AD81BE813D91BE83F4
:101FF000AD83A32FA295AF70B0E090960C91AF8106
:10200000B8854D915D916D917C9149875A876B8719
:102010007C873F70A10102C0440F551F3A95E2F73B
:102020009A01202309F081C0B701A601082E04C03F
:10203000440F551F661F771F0A94D2F78A019B0130
:1020400049855A856B857C85402B512B622B732BE0
:10205000AF81B8854D935D936D937C9313970196F3
:102060008731910509F0C0CF81A1B822B1A282A128
:10207000BB818B2B82A3EF81F88580819181A28126
:10208000B381481659066A067B0641F0A09290017A
:102090000E945B1D90939201809391012F8138855E
:1020A0002C5F3F4F38872F8349815A8141535140DC
:1020B00009F06ACF809190018823D9F08091910135
:1020C000909192010E94671D069798F0E4E7F1E075
:1020D00084E791E0D4014D915D916D917D914D0129
:1020E00041935193619371938A179B0799F71092CB
:1020F00090010E94DE0C81E02C960FB6F894DEBFB2
:102100000FBECDBFDF91CF911F910F91FF90EF9048
:10211000DF90CF90BF90AF909F908F907F906F9007
:102120005F904F903F902F90089500E010E098014D
:1021300087CF94E0899FF0011124EC58FE4F608115
:10214000718182819381089508959093980180937D
:1021500097010895E0919701F0919801309721F04F
:102160000190F081E02D099480E00895E0919701BD
:10217000F0919801309721F00280F381E02D0994CD
:102180000895E0919701F0919801309721F0048033
:10219000F581E02D099408952091950130919601E3
:1021A0002817390771F09093960180939501E0917B
:1021B0009701F0919801309721F00680F781E02D8A
:1021C00009940895209193013091940128173907BB
:1021D00071F09093940180939301E0919701F091B5
:1021E0009801309721F00084F185E02D099408953D
:1021F00008950C94F8100E94521D0E94480F0C94F0
:10220000221E4F925F926F927F928F929F92AF9217
:10221000BF92DF92EF92FF920F931F93CF93DF93C2
:10222000CDB7DEB72A970FB6F894DEBF0FBECDBF8D
:102230000E94970F2AE9E22E21E0F22E10E000E042
:10224000D02E802F0E9499104B015C01F701419024
:102250005190619071907F01481459046A047B0485
:1022600009F476C08091850281FD0E94A41090E05F
:1022700080E0482459246A247B24B301A201082E5B
:1022800004C076956795579547950A94D2F740FF15
:102290005AC08E83DF82412C512C3201439404C0FA
:1022A000440C551C661C771C8A95D2F78420952017
:1022B000A620B72081E089288A288B2809F480E0AD
:1022C00088870E945B1D8160782F9A8789874E815D
:1022D0005F8168858A850E94D511000F111F000F4C
:1022E000111FF801E656FE4F80819181A281B381D2
:1022F00084259525A625B72580839183A283B38362
:102300000E94A5200E94AA10909199018917B9F105
:102310000E94AA10809399012A960FB6F894DEBF06
:102320000FBECDBFDF91CF911F910F91FF90EF9026
:10233000DF90BF90AF909F908F907F906F905F9055
:102340004F900C94E20C01968731910509F095CFDE
:102350000F5F1F4F0730110509F072CF8FEF898390
:102360008A831B820E945B1D8160782F9D838C83F2
:1023700049815A816B818D810E94D511C1CF2A96E6
:102380000FB6F894DEBF0FBECDBFDF91CF911F9186
:102390000F91FF90EF90DF90BF90AF909F908F9044
:1023A0007F906F905F904F900895CF93DF93CDB75C
:1023B000DEB72B970FB6F894DEBF0FBECDBF4F83AD
:1023C000588769877A878B871E821D8285E0FE0188
:1023D0003796DE01119601900D928A95E1F74981B9
:1023E0005A816B817C818D819E812B960FB6F894EA
:1023F000DEBF0FBECDBFDF91CF910C945218882362
:1024000009F4D8C0823871F40E94AA1081FDD2C0AC
:1024100089E30E94A71B0E946F1C89E30E94E41BB2
:102420000C946F1C833859F40E94AA1080FDC2C01E
:1024300083E50E94A71B0E946F1C83E5EFCF8438C1
:1024400059F40E94AA1082FDB5C087E40E94A71B20
:102450000E946F1C87E4E2CF9CEF980F913A18F42A
:102460000E94A71BDDCF90E2980F983050F4877040
:1024700091E001C0990F8A95EAF7892F0E94261CE6
:10248000CFCF9BE5980F933070F4853A31F0863AC0
:1024900039F083E890E00C94CC1081E890E0FBCF19
:1024A00082E890E0F8CF98E5980F953108F082C067
:1024B000883A09F440C0893A09F440C08A3A09F4DC
:1024C00040C08B3A09F440C08C3A09F440C08B3BC1
:1024D00009F440C08C3B09F440C08D3A09F440C077
:1024E000803B09F440C08E3A09F440C08F3A09F4A9
:1024F00040C0813B09F440C0823B09F440C0833BAB
:1025000009F440C0843B09F440C0853B09F440C055
:10251000863B09F440C0873B09F440C0883B09F47E
:1025200040C0893B09F440C08A3B09F440C090E0B8
:1025300080E00C94E21082EE90E0FBCF89EE90E018
:10254000F8CF8AEE90E0F5CF85EB90E0F2CF86EB06
:1025500090E0EFCF83EB90E0ECCF84EB90E0E9CF1D
:1025600087EB90E0E6CF8CEC90E0E3CF8DEC90E051
:10257000E0CF83E891E0DDCF8AE891E0DACF82E92D
:1025800091E0D7CF84E991E0D4CF81E292E0D1CF3E
:1025900083E292E0CECF84E292E0CBCF85E292E07C
:1025A000C8CF86E292E0C5CF87E292E0C2CF8AE24E
:1025B00092E0BFCF0895882309F44BC0823871F4AC
:1025C0000E94AA1081FF45C089E30E94A71B0E94B8
:1025D0006F1C89E30E94E41B0C946F1C833859F430
:1025E0000E94AA1080FF35C083E50E94A71B0E94AD
:1025F0006F1C83E5EFCF843859F40E94AA1082FF44
:1026000028C087E40E94A71B0E946F1C87E4E2CFCA
:102610009CEF980F913AF0F290E2980F983050F4B6
:10262000877091E001C0990F8A95EAF7892F0E947F
:102630002C1CD2CF9BE5980F933020F490E080E0E3
:102640000C94CC10885A853120F490E080E00C94F2
:10265000E2100895882321F00E94261C0C946F1C20
:102660000895882321F00E942C1C0C946F1C08955F
:102670008F929F92AF92BF92DF92EF92FF920F9351
:102680001F93CF93DF937C01D62FC72FFC010581C9
:1026900002950F70128111110E94451C0E94A01B0F
:1026A000D82E882371F0112321F180E28D0F88301C
:1026B00000F182E00E948A1B0E94A01B91E0D82EAC
:1026C000D926EC2FE295EF70F0E0E759FC4E0C9420
:1026D00081297B137B13CB13CB130D142914A8135F
:1026E000A8133414A813CC14CC143F15A813A813A2
:1026F0004815D12CE6CF0C2F0F70C07F11F002953A
:10270000007F1123A9F0002359F080E28D0F88305B
:1027100010F0D11109C0802F0E94261C0E946F1C4E
:102720008D2F0E94FF1114C0802F0E94371CF6CFFE
:102730008D2F0E94DB12002359F080E28D0F88302C
:1027400010F0D11124C0802F0E942C1C0E946F1CFD
:10275000DD2009F4A4C10E947D1B80FDA0C1F7010A
:1027600012820E94771B0E94F119C7010E945B151B
:102770000E94771BDF91CF911F910F91FF90EF90F7
:10278000DF90BF90AF909F908F900C94121A802F83
:102790000E943D1CDBCFFC2FFF70BF2EC07FC032DC
:1027A00019F0B29480EFB822DD2369F0D13029F11D
:1027B000112369F1002359F0F701858180FFB0CF23
:1027C0008F70858304C0112361F0011104C08B2D2B
:1027D0000E942A13BDCF8B2D0130D1F70E94591CC6
:1027E000B7CF011106C00E945C1C8B2D0E943113D3
:1027F000AFCF013009F4ACCFF6CF112321F0063072
:1028000008F0A6CFE4CF053008F0A2CFEECF00232A
:1028100061F38D2F0E94DB129BCF8C2F86958695BE
:10282000837069F0813009F093CF8D2F9C2F9370C6
:10283000111102C090E080E00E94E21089CF8D2F3C
:102840009C2F9370111102C090E080E00E94CC1088
:102850007FCF8D2F112329F00E94AE1F0E949A2056
:1028600077CF0E941620FACF8C2F837009F047C0D3
:1028700011116ECF2D2F229526952770220F220F32
:102880006D2F6F70862E912CB12CA12C022E04C0BE
:10289000880C991CAA1CBB1C0A94D2F760E070E05B
:1028A000CB01D4FF0FC06FE070E080E090E004C087
:1028B000660F771F881F991F2A95D2F7609570952C
:1028C00080959095C695C695C370C23051F080F43E
:1028D000682979298A299B29C13071F00E949A19A7
:1028E00037CF682979298A299B290E94B61930CFC8
:1028F0000E949A19C501B4010E947E1929CF8695BC
:10290000112311F08C2F8170882309F421CF2D2FF2
:10291000229526952770220F220F6D2F6F70862E1D
:10292000912CB12CA12C022E04C0880C991CAA1C3D
:10293000BB1C0A94D2F760E070E0CB01D4FF0FC05B
:102940006FE070E080E090E004C0660F771F881FA2
:10295000991F2A95D2F76095709580959095C695A8
:10296000C695C370C23051F080F4682979298A294C
:102970009B29C13071F00E94741AEACE6829792926
:102980008A299B290E94901AE3CE0E94741AC501DD
:10299000B4010E94581ADCCEE0E2ED0FE53108F0F8
:1029A00062C0F0E0EA52FB4E0C948129EB14EB1468
:1029B000EB14EB14EB14EB14EB14EB14EB14EB141F
:1029C000EB14EB14EB14EB14EB14EB14F8140615E6
:1029D0000D1514151E15DF708C2F8F71112321F02A
:1029E0000E94F1198D2FF4CE0E94121A8D2FFECE67
:1029F000112341F0053008F0ABCE8C2F8F710E946F
:102A0000371AA6CE063008F0A3CEF7CF8C2F8F71E1
:102A1000112339F00E94F1199BCE8C2F8F71112355
:102A2000C9F30E94121A94CE112329F08C2F8F71B2
:102A30000E94DC198DCE0E94D2198ACE112349F052
:102A4000CF718C2F0E94F11963E08C2F0E94811BA3
:102A50007FCE81E00E948A1B023008F479CE82E0AA
:102A60000E948A1B75CE112329F0011159CE8C2F9B
:102A70008F71D0CF0111CDCE8C2F8F71D2CF4C2F33
:102A80004F706D2FC7010E94850B0E94FB1860CE0E
:102A90004C2F4F706D2FC7010E94E40C59CEDF916F
:102AA000CF911F910F91FF90EF90DF90BF90AF906B
:102AB0009F908F9008950F931F93CF93DF93EC0116
:102AC000988189812B813C81232B39F08F3F19F428
:102AD00081E09F3F19F080E001C081E080FD17C0D8
:102AE000CE010E949E0B882391F0688179818A81B2
:102AF0000E94531B8C010E94AC1A0E947319B801EA
:102B0000CE01DF91CF911F910F910C943813DF917B
:102B1000CF911F910F9108950E94451C0E94561C51
:102B20000E94181C0E946F1C0E9447210E949A203C
:102B300090E080E00E94CC1090E080E00C94E210E5
:102B40000E94341C0C948C150E94491BE92FE295BD
:102B5000EF70E250EE30E0F4F0E0EF54FA4E0C94F7
:102B60008129BF15BF15C815C815CA15C815C815C0
:102B7000C815BF15BF15CF15C815C815CF15803F8F
:102B800019F020F4803E20F481E00895843FE1F3C1
:102B900080E00895803EC0F3813FD1F7F5CF93FBED
:102BA000882780F90895CF93DF9300D000D01F923B
:102BB000CDB7DEB70F900F900F900F900F90DF9171
:102BC000CF910895CF93DF9300D000D000D0CDB740
:102BD000DEB726960FB6F894DEBF0FBECDBFDF91ED
:102BE000CF9108951F93CF93DF93C091B70116E063
:102BF0008091B8018C1304C0DF91CF911F9108958B
:102C0000D0E01C9FF0011D9FF00D1124E754FE4FF2
:102C10004081518162817381848195810E94E21596
:102C20002196C770E5CF4091E9015091EA0160918A
:102C3000EB017091EC018091ED019091EE010C940B
:102C4000E2151F93CF93DF938091EE01807FD1F443
:102C50008091EB018823B1F08091B701D091B80148
:102C6000B091E901C091EA014091EC015091ED0170
:102C7000A1E0BF3F09F0A0E0BA016095709516E0B1
:102C8000D81304C0DF91CF911F91089521E0411521
:102C9000510521F02A2FCF3F09F020E090E020FDE0
:102CA00038C0189FF001199FF00D1124E754FE4F12
:102CB00021812C132EC020812B132BC022812111A6
:102CC00028C0238134812417350700F1241B350BDC
:102CD000283C3105F0F42091EE012F702061209303
:102CE000EE0126E0289FF001299FF00D1124E25407
:102CF000FE4F80818F708061808389EE91E00E9419
:102D00005B15DF91CF911F910C94F215260F371FA1
:102D1000DFCF01968770B4CFAF92BF92CF92DF9290
:102D2000EF92FF920F931F93CF93DF93CDB7DEB750
:102D300061970FB6F894DEBF0FBECDBF8C0185E062
:102D4000F801DE011D9601900D928A95E1F7D801F8
:102D50004C9111965C9111971296EC903091E9018B
:102D60006091EA018091EC019091ED0121E00097E2
:102D700031F06F3F19F421E03F3F09F020E0B22F1E
:102D8000B170BB2E20FD80C1F801C380D480A0901B
:102D9000EB01AA2009F427C1C816D906D0F1D60143
:102DA000A81BB90BCD01FF24F394883C910508F0D2
:102DB000F12C8091EE01982F907FFF2009F4CAC07A
:102DC000911187C0FE2C651329C0341327C0E11070
:102DD00025C08F7080618093EE010E94131689EEEA
:102DE00091E00E945B158091EE01F80185838F2DA3
:102DF00061960FB6F894DEBF0FBECDBFDF91CF91C5
:102E00001F910F91FF90EF90DF90CF90BF90AF9008
:102E10000895809590958C0D9D1DC5CF81E0CD289E
:102E200031F05F3F19F481E04F3F09F080E080FD11
:102E300024C081E08E25F82FF170DF2E80FF3FC087
:102E40008091B7012091B80136E0821318C04D87F8
:102E50005E878D859E850E94491B292F22952F70A4
:102E6000223008F1243030F59F7009F1D801159611
:102E70009C91907FE1F4FB2CBACF80E0DCCF90E016
:102E8000389FF001399FF00D1124E754FE4F618106
:102E9000561306C06081461303C062816E110FC0D5
:102EA00001968770D2CF9F7011F0882321F3805E46
:102EB000883008F3C8010E945B15BD2CDCCFEE20E2
:102EC00009F495CF8091EE0181608093EE01F12CA1
:102ED0008ECF651312C0341310C0E1100EC0F8017C
:102EE0008583C8010E945B1586E0F801A9EEB1E078
:102EF00001900D928A95E1F741C04D875E878D85DF
:102F00009E850E94A415882309F4C8C0EE2009F408
:102F1000C5C08091EE01803270F02091E9013091BE
:102F2000EA0138872F831986DB86CA868C87CE0113
:102F300007960E945B1586E0F801A9EEB1E00190CA
:102F40000D928A95E1F70E9421160E941316FF2424
:102F5000F3944DCF911115C07C2DD98AC88A6E2D5E
:102F600089890E94D31589EE91E00E945B1586E065
:102F7000E9EEF1E0DF011D928A95E9F70E94131650
:102F800036CF651312C0341310C0E1100EC0F80123
:102F90008583C8010E945B15E9EEF1E086E0DF0160
:102FA0001D928A95E9F7FA2C22CF4D875E878D8591
:102FB0009E850E94A415882309F470C0EE2009F4B0
:102FC0006DC08091EE01803208F4B5CF2091E90107
:102FD0003091EA013A8329831B82DD82CC828E8381
:102FE000CE010196A6CFC816D90638F1F601E81B26
:102FF000F90BCF01F12C883C910508F03DC0FE2C67
:10300000EE2009F44BC0651326C0341324C0809110
:10301000EE0180FD17C0982F907FA1F0D801159682
:103020008C931597903F09F45CCF982F907F905F19
:103030008F70892B15968C9354CF809590958C0D1D
:103040009D1DD8CF86E0F801A9EEB1E001900D9268
:103050008A95E1F7CCCE4D875E878D859E850E944F
:10306000A415811168CF8091EE0181608093EE01FB
:10307000C8010E945B15BBCE7C2DD98AC88A6E2DF3
:1030800089890E94D31573CFEE2041F04D875E876A
:103090008D859E850E94A41581114DCFC8010E9487
:1030A0005B1555CF1F93CF93DF93CDB7DEB72C972A
:1030B0000FB6F894DEBF0FBECDBF4F835887698728
:1030C0007A878B879C87CE0107960E948C1688236F
:1030D00009F442C09F8188852A853B85232B39F0DE
:1030E0008F3F19F481E09F3F19F080E001C081E03B
:1030F00080FD08C04F81588569857A858B859C85C0
:103100000E94E21516E08091B7019091B8018917ED
:1031100009F467C0819FC001112487549E4F0E940B
:103120008C16882309F45DC0E091B7011E9FF00161
:103130001124E754FE4F4081518162817381848163
:1031400095810E94E2158091B70190E00196877009
:1031500099278093B701D7CF86E0FE013796DE012D
:10316000119601900D928A95E1F79F8188852A85B5
:103170003B85232B39F08F3F19F481E09F3F19F0F5
:1031800080E001C081E080FDBDCF2091B80130E03A
:10319000C9010196877099274091B7014817190610
:1031A00099F096E0929FD001939FB00D1124A754FF
:1031B000BE4FFE01319601900D929A95E1F78093F2
:1031C000B8010E94F2159ECF0E94A0151092B8017E
:1031D0001092B70186E0E9EEF1E0DF011D928A95D9
:1031E000E9F72C960FB6F894DEBF0FBECDBFDF9186
:1031F000CF911F910895EF92FF920F931F93CF935A
:10320000DF938C01892B81F0F12CEE24E394E8010B
:103210002196F8018491843770F4843008F05FC0FF
:103220008130B1F08230A1F1DF91CF911F910F91E8
:10323000FF90EF900895853709F44CC008F43DC025
:103240009CE7980F903780F78F770E94DB1249C078
:103250000E5F1F4FFE01849190E2980F983060F44A
:103260008770FE2D01C0FF0F8A95EAF78F2F0E940D
:10327000481C0E946F1C02C00E94FF118F2D8150BC
:1032800030F2EFE9FFE03197F1F700C00000F7CF2F
:103290000E5F1F4FFE01849190E2980F983050F41A
:1032A0008770FE2D01C0FF0F8A95EAF78F2F0E94CD
:1032B0004E1CDFCF0E94DB12E1CF0E5F1F4FFE01DD
:1032C000C491C150D8F28FE99FE00197F1F700C097
:1032D0000000F7CF0E5F1F4FFE01F490CFCF0E948A
:1032E000FF118E01CBCF089560935C0270935D0255
:1032F00080935E0290935F020C948C150F931F9342
:1033000000915C0210915D0220915E0230915F029B
:10331000DC01CB01802B912BA22BB32B80935C0281
:1033200090935D02A0935E02B0935F021F910F9194
:103330000C948C150F931F9300915C0210915D0209
:1033400020915E0230915F02DC01CB01802391234A
:10335000A223B32380935C0290935D02A0935E024C
:10336000B0935F021F910F910C948C150F931F93D4
:1033700000915C0210915D0220915E0230915F022B
:10338000DC01CB0180279127A227B32780935C0221
:1033900090935D02A0935E02B0935F021F910F9124
:1033A0000C948C15109258021092590210925A02E5
:1033B00010925B020C948C1541E050E060E070E0EC
:1033C00004C0440F551F661F771F8A95D2F740939C
:1033D00058025093590260935A0270935B020C9406
:1033E0008C1541E050E060E070E004C0440F551FD0
:1033F000661F771F8A95D2F78091580290915902E3
:10340000A0915A02B0915B02842B952BA62BB72B6F
:103410008093580290935902A0935A02B0935B0292
:103420000C948C1541E050E060E070E004C0440F63
:10343000551F661F771F8A95D2F740955095609566
:1034400070958091580290915902A0915A02B091C2
:103450005B0284239523A623B7238093580290937D
:103460005902A0935A02B0935B020C948C1541E070
:1034700050E060E070E004C0440F551F661F771FE6
:103480008A95D2F78091580290915902A0915A02E0
:10349000B0915B0284279527A627B727809358020F
:1034A00090935902A0935A02B0935B020C948C152E
:1034B0000F931F93009158021091590220915A02C4
:1034C00030915B02DC01CB01802B912BA22BB32B23
:1034D0008093580290935902A0935A02B0935B02D2
:1034E0001F910F910C948C150F931F93009158020C
:1034F0001091590220915A0230915B02DC01CB01FC
:1035000080239123A223B3238093580290935902DE
:10351000A0935A02B0935B021F910F910C948C15EB
:103520000F931F93009158021091590220915A0253
:1035300030915B02DC01CB0180279127A227B327C2
:103540008093580290935902A0935A02B0935B0261
:103550001F910F910C948C15089527E1929F800D77
:103560001124982F977071E001C0770F9A95EAF7B0
:1035700086958695869525E0829FC001112450E0AE
:1035800040E0A62FB0E0FC01E40FF51FE151FE4F33
:1035900060819D01042E02C0369527950A94E2F7BA
:1035A0002170219526272723262720834F5F5F4FF1
:1035B0004530510541F7089527E1929F800D112470
:1035C000982F977086958695869525E0829FA00115
:1035D000112470E060E080E0FA01E60FF71FE1518E
:1035E000FE4F208130E0092E02C0369527950A94BF
:1035F000E2F721703327062E01C0220F0A94EAF762
:10360000822B6F5F7F4F6530710531F70895BF9250
:10361000CF92DF92EF92FF920F931F93CF93DF939E
:103620008C01C0905802D0905902E0905A02F0905C
:103630005B0280915C0290915D02A0915E02B0916C
:103640005F02C82AD92AEA2AFB2ACFE1D0E0BC2EA1
:10365000D701C6010C2E04C0B695A79597958795FE
:103660000A94D2F780FD0EC0219788F7B12C8B2DDC
:10367000DF91CF911F910F91FF90EF90DF90CF904E
:10368000BF900895B8018C2F0E94010D019761F33E
:10369000EECFCF93DF93EC010E94071BBE01DF91B9
:1036A000CF910C94010D1F93CF93DF93EB01909179
:1036B000B601992331F0CB01DF91CF911F910C948A
:1036C000491B882379F0CB010E94071B182F682F14
:1036D000CE010E94AD1ABE01812FDF91CF911F91C3
:1036E0000C94010DCB010E94DC1A182FF4CF8091AD
:1036F0006002859585958595089580916002877013
:10370000089598E0899F90011124622B60936002D4
:103710000C94F11990916002809589238093600246
:10372000282F277061F4282F082E000C330B9217D6
:10373000130629F08595859585950C94121A0895A0
:1037400090916002977081E009F480E00895909173
:1037500012019923E1F09091B60297FF18C0E82F6B
:10376000E695E695E695EF3139F12091000130912B
:103770000101E20FF32FF11D877021E030E001C05D
:10378000220F8A95EAF78181822B81830895209107
:10379000000130910101F90132969FEF40E0519113
:1037A000851751F09F3F19F4511101C0942F4F5FBD
:1037B0004E31A9F79F3F09F40895290F311D97FD58
:1037C0003A95F90182830895909112019923F1F0BD
:1037D0009091B60297FF1AC0E82FE695E695E69518
:1037E000EF3129F12091000130910101E20FF32F17
:1037F000F11D282F277081E090E001C0880F2A95E5
:10380000EAF78095918189238183089520910001B1
:1038100030910101F9013296205E3F4F9191891359
:1038200003C0DF0111971C92E217F307B9F708955F
:1038300081E090E0E0910001F0910101E80FF91FB3
:103840001082019680329105A9F708959091840223
:10385000892B809384020895982F909580918402FB
:103860008923809384020895109284020895909190
:103870008302892B809383020895982F90958091DD
:10388000830289238093830208951092830208950E
:1038900090918202892B809382020895982F9095AF
:1038A000809182028923809382020895109282027D
:1038B0000895809361020895109261020895209105
:1038C000000130910101F9013196205E3F4F80E007
:1038D000919191118F5FE217F307D1F70895E0916D
:1038E0000001F0910101809184028083E091000148
:1038F000F0910101808190918302892B8083E09176
:103900000001F0910101808190918202892B8083D6
:1039100090916102992361F0E0910001F091010121
:103920008081892B80830E945F1C8111109261022B
:1039300080910001909101010C94B6106DEE7EEF24
:1039400090E080E00E94BB2960E082E090E00E946D
:10395000A92960E083E090E00E94A92960E084E06A
:1039600090E00E94A92960E085E090E00C94A929EC
:1039700090E080E00E94A32921E08D3E9E4F09F057
:1039800020E0822F089582E090E00C949B29682F1C
:1039900082E090E00C94A92983E090E00C949B29AC
:1039A000682F83E090E00C94A92984E090E00C94C7
:1039B0009B29682F84E090E00C94A9298091BC0297
:1039C000843039F11092860288E190E020E40FB64D
:1039D000F894A895809360000FBE2093600080E06B
:1039E0000E94E20C83B7817F846083BF83B78160CC
:1039F00083BF7894889583B78E7F83BF0FB6F89482
:103A0000A8958091600088618093600010926000AA
:103A10000FBE089508950895CF930E940A1D0E9435
:103A2000970F0E940B1DC0E08C2F0E949910672BEE
:103A3000682B692B31F4CF5FC730B1F780E0CF91AD
:103A4000089581E0FCCF0E94A0150E94AA100C945A
:103A5000E20C1F920F920FB60F9211248F939F9337
:103A6000AF93BF9380918602811113C08091B202FF
:103A70009091B302A091B402B091B5024196A11DFC
:103A8000B11D8093B2029093B302A093B402B0939D
:103A9000B502BF91AF919F918F910F900FBE0F9084
:103AA0001F90189582E084BD93E095BD9AEF97BD75
:103AB00080936E0008952FB7F8948091B202909190
:103AC000B302A091B402B091B5022FBF0895CF9276
:103AD000DF92EF92FF920F931F932FB7F8944091CC
:103AE000B2025091B3026091B4027091B5022FBF3F
:103AF0006A017B01EE24FF248C0130E020E0C01637
:103B0000D106E206F30650F0481B590BCA011F917B
:103B10000F91FF90EF90DF90CF90089541505109A1
:103B2000F3CF1F920F920FB60F9211248F939F9392
:103B3000AF93BF938091B2029091B302A091B4026F
:103B4000B091B5020196A11DB11D8093B202909370
:103B5000B302A093B402B093B502BF91AF919F910D
:103B60008F910F900FBE0F901F9018950E944125C6
:103B7000F8942FEF87EA91E6215080409040E1F7DA
:103B800000C0000087E090EBDC018093C5029093B9
:103B9000C602A093C702B093C80288E19CE00FB6AA
:103BA000F894A895809360000FBE90936000FFCFBB
:103BB0008F929F92AF92BF92EF92FF920F931F93BB
:103BC000CF93C0E0E82EF12C8C2F0E9499104B016E
:103BD0005C0110E000E0D501C401002E04C0B695E0
:103BE000A795979587950A94D2F780FD13C00F5F2C
:103BF0001F4F0731110579F7CF5FC73029F780E0F4
:103C0000CF911F910F91FF90EF90BF90AF909F9039
:103C10008F900895602F7C2F80E00E94E50CE816BD
:103C2000F90629F781E0ECCFCF93C82F8CE20E94F0
:103C3000D81D882321F08C2FCF910C94D81D80E0C3
:103C4000CF910895CF930E94B81C811102C00E94A9
:103C50009E1CC5E608C00E94970F8FE39CE9019760
:103C6000F1F700C00000C150B1F789E20E94141EB4
:103C70008111EFC08AE20E94141E81110E949E1CD5
:103C800085E00E94141E81110E94B61D0E94C31C73
:103C90008093850287E00E94141E882371F08BE1D7
:103CA0000E94141E882309F4B1C090918502892FC7
:103CB0008D7F91FF826080938502809185020E94B2
:103CC000C71C0E94D51C90E09093B7028093B60267
:103CD00080EE0E94141E882341F09091B602892F35
:103CE0008E7F90FF81608093B60289E30E94141E4C
:103CF000882341F09091B602892F8D7F91FF8260D9
:103D00008093B60282EE0E94141E882341F09091A7
:103D1000B602892F8B7F92FF84608093B60286EE75
:103D20000E94141E882341F09091B602892F877F4C
:103D300093FF88608093B60283EE0E94141E88234E
:103D400041F09091B602892F8F7E94FF806180931D
:103D5000B60285E30E94141E882341F09091B602BA
:103D6000892F8F7D95FF80628093B60281E30E9448
:103D7000141E882341F09091B602892F8F7B96FF05
:103D800080648093B60281E10E94141E882341F072
:103D90009091B602892F97FB87F980588093B602DD
:103DA0008091B6020E94D91C87E20E94141EC82F7F
:103DB0008EE10E94141E8111C2608FE10E94141EC8
:103DC0008111C46080E20E94141E8111C86081E2EA
:103DD0000E94141E8111C06182E20E94141E811192
:103DE000C06283E20E94141E8111C06484E20E94BA
:103DF000141E882341F1C0688C2F0E94D01C6C2FA8
:103E000070E090E080E0CF910C9474198EE00E94F5
:103E1000141E882339F090918502892F8B7F92FFA1
:103E2000846049CF80E10E94141E9091850288230E
:103E300029F0892F877F93FF88603DCF892F8E7F60
:103E400090FF816038CFC111D7CF0E94CC1C682F62
:103E5000D7CFCF9108958091890280FF12C06091E1
:103E6000050185E0689FB0011124759567957595EA
:103E7000679560387105A8F561157105A1F1862F68
:103E8000089581FF09C06091050185E0689FB00138
:103E9000112475956795EDCF82FF07C060910501EC
:103EA00085E0689FB0011124E4CF20918A0222238B
:103EB000A9F0909104016091050185E0689FB0012F
:103EC00011242917B0F6269FA001279F500D112419
:103ED000692F70E0CA010E946D29CBCF65E070E0C8
:103EE000CECF8FE7089581E008958091890280FF09
:103EF0000CC06091030170E07595679575956795A5
:103F00006115710549F1862F089581FF06C0609102
:103F1000030170E075956795F3CF6091030182FD11
:103F20000BC090918A029923A1F0609102018091C7
:103F30000301961738F0682F70E06038710500F3C0
:103F40008FE70895899FC001112470E00E946D29B8
:103F5000F4CF61E070E0D7CF81E00895803F31F485
:103F60000E942B1F819580938D020895813F19F443
:103F70000E942B1FF8CF823F31F40E942B1F8195A6
:103F800080938C020895833F19F40E942B1FF8CF71
:103F9000893F29F40E94751F80938E0208958A3FFD
:103FA00021F40E94751F8195F7CF8B3F31F40E9459
:103FB000751F819580938F0208958C3F19F40E949C
:103FC000751FF8CF843F31F480918B02816080931C
:103FD0008B020895853F21F480918B028260F7CF98
:103FE000863F21F480918B028460F1CF873F21F4DA
:103FF00080918B028860EBCF883F21F480918B0207
:104000008061E5CF8D3F31F480918902816080939A
:10401000890208958E3F21F4809189028260F7CF52
:104020008F3FB9F7809189028460F1CF803FC1F45E
:1040300080918D0287FD10928D0280918C028111FA
:104040000EC080918D0281110AC080918E02811173
:1040500006C080918F02811102C010928A020895D9
:10406000813F29F480918D0218162CF3E6CF9091B0
:104070008C02823F29F497FFE0CF10928C02DDCFB3
:10408000833F19F41916CCF3D8CF893F39F48091C6
:104090008E02181694F610928E02CFCF8A3F29F422
:1040A00080918E0287FFC9CFF6CF8B3F39F4809184
:1040B0008F0287FFC2CF10928F02BFCF8C3F29F4AF
:1040C00080918F021816BCF3B8CF843F31F48091F1
:1040D0008B028E7F80938B02B0CF853F21F480913D
:1040E0008B028D7FF7CF863F21F480918B028B7FEF
:1040F000F1CF873F21F480918B02877FEBCF883F00
:1041000021F480918B028F7EE5CF8D3F31F4809139
:1041100089028E7F8093890290CF8E3F21F4809117
:1041200089028D7FF7CF8F3F09F087CF8091890279
:104130008B7FF0CF8BE892E00E94C1100E945B1D44
:10414000909388028093870208951F93CF93DF9303
:1041500080918702909188020E94671DAC01909126
:104160008A022091060130E0911106C020910701DA
:104170008AE0289F900111244217530780F0809114
:104180008C02C0918D0210918E02D0918F0281110C
:104190000AC0C11178C0111176C0D11174C0DF916D
:1041A000CF911F9108959F3F19F09F5F90938A02CE
:1041B000181624F40E942B1F80938C0280918C028D
:1041C00087FF05C00E942B1F819580938C021C16CF
:1041D00024F40E942B1F80938D0280918D0287FF13
:1041E00005C00E942B1F819580938D0260918C02E7
:1041F000662331F1C0918D02CC2311F1062E000C03
:10420000770B880B990B0E94742823E333E343E375
:104210005FE30E94D8280E943C2860938C026C2F98
:10422000CC0F770B880B990B0E94742823E333E3A0
:1042300043E35FE30E94D8280E943C2860938D02EC
:10424000111624F40E94751F80938E0280918E02B5
:1042500087FF05C00E94751F819580938E021D16F1
:1042600024F40E94751F80938F0280918F0287FF34
:1042700005C00E94751F819580938F02DF91CF91B9
:104280001F910C949A209F3F09F08FCFA0CF85E01B
:10429000EBE8F2E0DF011D928A95E9F710928A02BD
:1042A0001092890208958091B0020895CF93DF9310
:1042B00000D01F92CDB7DEB79C018091BC02843044
:1042C00019F593E099833B832A839093E9008FEF5C
:1042D0009091E800815095FD06C095ED9A95F1F713
:1042E00000008111F5CF8091E80085FF0DC050E0FE
:1042F00040E063E070E0CE0101960E94B12380911E
:10430000E8008E778093E8000F900F900F90DF9178
:10431000CF910895CF93DF9300D01F92CDB7DEB732
:104320002091BC02243031F522E029838058910984
:104330009B838A8383E08093E9008FEF9091E8006C
:10434000815095FD06C095ED9A95F1F70000811119
:10435000F5CF8091E80085FF0DC050E040E063E0BC
:1043600070E0CE0101960E94B1238091E8008E7723
:104370008093E8000F900F900F90DF91CF910895F8
:104380009C018091BC028430F9F482E08093E900C2
:104390009FEF8091E800915085FD06C085ED8A95DC
:1043A000F1F700009111F5CF8091E80085FF0CC076
:1043B00050E040E065E070E0C9010E94B1238091C7
:1043C000E8008E778093E8000895CF93DF93EC01A7
:1043D0008091BC028430F1F4909112019923E9F0AC
:1043E0009091B60297FF19C08093E9008FEF9091EA
:1043F000E800815095FD06C095E19A95F1F700001F
:104400008111F5CF8091E80050E040E060E270E07B
:1044100085FD1AC0DF91CF91089581E08093E90076
:104420008FEF9091E800815095FD06C095ED9A952B
:10443000F1F700008111F5CF8091E80085FFEACF08
:1044400050E040E068E070E0CE010E94B12380912E
:10445000E8008E778093E80080E2FE01A0E9B2E0F8
:1044600001900D928A95E1F7D5CF8091BB02811121
:1044700009C00E9441250E949E258091E20084602F
:104480008093E20008951092BB0208950895089564
:104490000C94231D42E061EC81E00E94BF2442E0C5
:1044A00061EC82E00E94BF2442E061EC83E00E9464
:1044B000BF2442E261EC84E00C94BF248091BE02F0
:1044C000833009F455C030F4813071F1823009F441
:1044D00091C008958A3009F47DC08B3009F463C01F
:1044E000893009F044C08091BD02813209F03FC09B
:1044F0008091C1029091C202009711F00397B9F523
:104500008091E800877F8093E8008091E80082FF37
:104510002AC08091F1008093B0028091E8008B77EF
:104520008093E8000C94F3248091BD02813AF9F461
:104530008091E800877F8093E8008091C10290918C
:10454000C202892B61F460E280E992E070E00E948F
:1045500000248091E8008B778093E800089560E064
:1045600090E080E0F3CF8091BC028111CECF08951E
:104570008091BD02813AD9F78091C1029091C20227
:10458000892BA9F78091E800877F8093E8008091CC
:10459000E80080FFFCCF809112018093F1008091B0
:1045A000E8008E77BDCF8091BD02813201F7809106
:1045B000C1029091C202892BD1F68091E800877FD9
:1045C0008093E8000E94F3248091BF02809312013F
:1045D0000C94A0158091BD02813249F68091E800CB
:1045E000877F8093E8000E94F3248091C00280932B
:1045F000B10208958091BD02813A09F0B8CF80914F
:10460000E800877F8093E8008091E80080FFFCCF7E
:104610008091B102C2CF84B7877F84BF0FB6F89470
:10462000A89580916000886180936000109260007E
:104630000FBE80E880936100109261000E94F91023
:104640000E9441250E949E258091E2008460809313
:10465000E20078940E9420280E94FB1088E091E0FC
:104660000E94A5108091BC02853019F00E940111B2
:10467000F9CF0E94DE1C8091BA02882399F30E9430
:104680000C1D882379F30E949B23ECCF292F33271D
:104690002330310579F158F421303105F1F0223021
:1046A000310519F190E080E030E020E01AC02132BD
:1046B000310599F122323105A9F7643098F770E09D
:1046C000FB01EE0FFF1FEB5CFE4F208131816F5C21
:1046D0007E4FFB01808190E004C082E190E029E6FA
:1046E00035E1FA013183208308958DE690E02CEFC7
:1046F00034E1F7CF99278130910561F028F00297D6
:1047000089F6ECECF4E102C0E8EFF4E1849190E08A
:104710009F01E7CFE0EEF4E1F9CF643008F0C2CFBB
:10472000E62FF0E0EE0FFF1FE35CFE4F20813181AA
:1047300089E090E0D6CF80E189BD82E189BD09B4EE
:1047400000FEFDCF8091D8008F7D8093D8008091AE
:10475000E00082608093E0008091E00081FDFCCF6A
:104760000895AF92BF92CF92DF92FF920F931F9363
:10477000CF93DF936C01EB018A010E941225F82E82
:10478000811123C00115110539F0F8018081918153
:10479000C81BD90BC80ED91EB12CA12C2097A9F08B
:1047A0008091E80085FD22C08091E8008E7780939B
:1047B000E80001151105A1F0F80180819181A80E92
:1047C000B91EB182A08285E0F82E8F2DDF91CF91A6
:1047D0001F910F91FF90DF90CF90BF90AF90089501
:1047E0000E9412258823D1F2F82EEFCFF601819195
:1047F0006F018093F1002197FFEFAF1ABF0ACECF70
:10480000FC018091C3029091C40286179707A0F023
:104810006115710529F49091E8009E779093E80066
:1048200090E06115710551F4911108C08091E80084
:1048300082FF35C080E00895BC01F2CF8091BC02B8
:104840008823C9F18530C9F18091E80083FD31C02A
:104850008091E80082FDEACF8091E80080FFE1CFFF
:104860002091F3008091F200322F282F61157105FD
:1048700019F02830310558F091E02830310509F061
:1048800090E02091E8002E772093E800CACF819134
:104890008093F100615071092F5F3F4FE7CF809106
:1048A000BC02882341F0853041F08091E80083FF0D
:1048B000BDCF81E0089582E0089583E00895FC0172
:1048C0008091C3029091C40286179707A0F06115EA
:1048D000710529F48091E8008E778093E80090E0DC
:1048E0006115710551F4911108C08091E80082FFB3
:1048F00036C080E00895BC01F2CF8091BC028823CD
:10490000D1F18530D1F18091E80083FD32C08091F2
:10491000E80082FDEACF8091E80080FFE1CF20919E
:10492000F3008091F200322F282F6115710519F0E4
:104930002830310558F091E02830310509F090E039
:104940008091E8008E778093E800CACF84918093AD
:10495000F1003196615071092F5F3F4FE6CF809192
:10496000BC02882341F0853041F08091E80083FF4C
:10497000BCCF81E0089582E0089583E00895982FE8
:10498000973028F08F708093E90081E0089590932C
:10499000E900242F762F50E0981731F07091EC0049
:1049A0002091ED005091F00021FD02C09F5FE8CF03
:1049B0003091EB003E7F3093EB003091ED003D7F76
:1049C0003093ED003091EB0031603093EB00709349
:1049D000EC002093ED005093F0002091EE0027FDB5
:1049E000E5CF80E008958091BD0287FF13C08091DC
:1049F000E80082FF06C08091E8008B778093E80092
:104A000004C08091BC028111F2CF08958091BC0254
:104A10008823D9F38091E80080FFF8CF8091E800E7
:104A20008E77ECCF2091E4003091E50085E69091FF
:104A3000EC0090FF06C09091E80090FF06C080E077
:104A400008959091E80092FDFACF9091BC029923CD
:104A500091F0953091F09091EB0095FD10C0409150
:104A6000E4005091E5002417350709F381509A01BD
:104A7000F1F684E0089582E0089583E0089581E0EE
:104A800008950E94AF250E94B725E0EEF0E08081F6
:104A900081608083E8EDF0E080818F77808319BCAE
:104AA000A7EDB0E08C918E7F8C9380818F7E808388
:104AB0001092BB0208950F931F93CF93DF930E9430
:104AC000AF250E94B725C8EDD0E088818F77888315
:104AD00088818068888388818F7D888319BC109243
:104AE000BC021092B8021092BA021092B90200EE03
:104AF00010E0F80180818B7F8083888181608883CA
:104B000042E060E080E00E94BF24E1EEF0E08081BE
:104B10008E7F8083E2EEF0E08081816080838081FF
:104B200088608083F80180818E7F808388818061A6
:104B30008883DF91CF911F910F910895E8EDF0E008
:104B400080818F7E8083E7EDF0E0808181608083CB
:104B500084E082BF81E08093BB020C945B25E8ED8A
:104B6000F0E080818E7F80831092E20008951092A1
:104B7000DA001092E10008951F920F920FB60F9283
:104B800011242F933F934F935F936F937F938F9352
:104B90009F93AF93BF93EF93FF938091E10082FFC8
:104BA0000BC08091E20082FF07C08091E1008B7F03
:104BB0008093E1000E941F288091DA0080FF19C0D5
:104BC0008091D80080FF15C08091DA008E7F80939D
:104BD000DA008091D90080FF94C080E189BD82E134
:104BE00089BD09B400FEFDCF81E08093BC020E9424
:104BF00035228091E10080FF19C08091E20080FFA2
:104C000015C08091E2008E7F8093E2008091E200E7
:104C100080618093E2008091D80080628093D80008
:104C200019BC85E08093BC020E9447228091E1007C
:104C300084FF29C08091E20084FF25C080E189BD06
:104C400082E189BD09B400FEFDCF8091D8008F7D3F
:104C50008093D8008091E1008F7E8093E100809165
:104C6000E2008F7E8093E2008091E2008160809379
:104C7000E2008091B802882309F449C084E080935F
:104C8000BC020E9448228091E10083FF29C08091EC
:104C9000E20083FF25C08091E100877F8093E100DF
:104CA00082E08093BC021092B8028091E1008E7F76
:104CB0008093E1008091E2008E7F8093E2008091FA
:104CC000E20080618093E20042E060E080E00E94C8
:104CD000BF248091F00088608093F0000E944622FB
:104CE000FF91EF91BF91AF919F918F917F916F91C4
:104CF0005F914F913F912F910F900FBE0F901F909A
:104D0000189519BC1092BC020E94432272CF809168
:104D1000E30087FD02C081E0B2CF83E0B0CF1F92F5
:104D20000F920FB60F9211242F933F934F935F93DF
:104D30006F937F938F939F93AF93BF93CF93EF9393
:104D4000FF93C091E900CF708091EC001092E900D0
:104D50008091F000877F8093F00078940E94CB26AA
:104D60001092E9008091F00088608093F000C09379
:104D7000E900FF91EF91CF91BF91AF919F918F91FA
:104D80007F916F915F914F913F912F910F900FBE47
:104D90000F901F9018951F93CF93DF93CDB7DEB779
:104DA000AA970FB6F894DEBF0FBECDBFEDEBF2E0D1
:104DB0008091F100819322E0E53CF207C9F70E945F
:104DC0005E228091E80083FF42C08091BD029091F5
:104DD000BE029A3008F03BC0E92FF0E0EE50F94DEA
:104DE0000C948129FC2620272727202727277B278B
:104DF0009D272727F227FF27803879F0823839F559
:104E00008091C1028F708093E9008091EB0085FB57
:104E1000882780F91092E90006C08091B90290912C
:104E2000BA02911182609091E800977F9093E80018
:104E30008093F1001092F1008091E8008E772DC0F0
:104E4000282F2D7F21F48823D1F0823059F18091D1
:104E5000E80083FF0AC08091E800877F8093E80024
:104E60008091EB0080628093EB00AA960FB6F894D5
:104E7000DEBF0FBECDBFDF91CF911F91089580910E
:104E8000BF02813021F7933009F080E08093BA02AD
:104E90001092E9008091E800877F8093E8000E94EB
:104EA000F324D5CF8091BF028111F2CF8091C1024E
:104EB0008F7069F28093E9002091EB0020FFE8CF2A
:104EC000933031F48091EB0080628093EB00E0CF6F
:104ED0009091EB0090619093EB0021E030E001C0F5
:104EE000220F8A95EAF72093EA001092EA00809157
:104EF000EB008860EACF8111AACF1091BF021F7723
:104F00008091E3008078812B8093E3008091E8001A
:104F1000877F8093E8000E94F3248091E80080FF5F
:104F2000FCCF8091E30080688093E30083E011115F
:104F300001C082E08093BC028ACF8058823008F0A2
:104F400086CF8091BF029091C0028C3D23E09207F2
:104F5000A1F583E08A838AE289834FB7F894DE0162
:104F6000139620E03EE051E2E32FF0E0509357002B
:104F7000E49120FF03C0E295EF703F5FEF708E2F4A
:104F800090E0EA30C0F0C7968D939D932F5F243157
:104F900059F74FBF8091E800877F8093E8006AE26D
:104FA00070E0CE0101960E9400248091E8008B778A
:104FB0008093E8004CCFC096E7CFAE014F5F5F4FC4
:104FC0006091C1020E944623BC01892B09F43FCFA6
:104FD0009091E800977F9093E80089819A810E94E0
:104FE0005F24E3CF803809F032CF8091E800877FDB
:104FF0008093E8008091B8028093F1001DCF811169
:1050000026CF9091BF02923008F021CF8091E80026
:10501000877F8093E8009093B8020E94F3248091E8
:10502000B802882331F084E08093BC020E944A22B7
:105030000ECF8091E30087FDF6CF81E0F5CF089594
:10504000CF938091BC02882399F0C091E900CF7082
:105050008091EC0080FD0EC080E0C82B1092E9002A
:105060008091E80083FD0E94CB26CF70C093E900B9
:10507000CF91089580E8F1CF0E9443286894B11140
:105080000C94D22808950E94B72888F09F5798F072
:10509000B92F9927B751B0F0E1F0660F771F881F3D
:1050A000991F1AF0BA95C9F714C0B13091F00E9457
:1050B000D128B1E008950C94D128672F782F882744
:1050C000B85F39F0B93FCCF3869577956795B3957E
:1050D000D9F73EF490958095709561957F4F8F4FED
:1050E0009F4F0895E89409C097FB3EF490958095F2
:1050F000709561957F4F8F4F9F4F9923A9F0F92F9E
:1051000096E9BB279395F695879577956795B7951B
:10511000F111F8CFFAF4BB0F11F460FF1BC06F5F01
:105120007F4F8F4F9F4F16C0882311F096E911C013
:10513000772321F09EE8872F762F05C0662371F034
:1051400096E8862F70E060E02AF09A95660F771F48
:10515000881FDAF7880F9695879597F9089557FD78
:105160009058440F551F59F05F3F71F04795880FD5
:1051700097FB991F61F09F3F79F08795089512166C
:1051800013061406551FF2CF4695F1DF08C0161618
:1051900017061806991FF1CF8695710561050894C9
:1051A0000895E894BB2766277727CB0197F90895E0
:1051B0000E94EB280C945C290E944E2938F00E9432
:1051C000552920F0952311F00C9445290C944B2976
:1051D00011240C94D2280E94AF2870F3959FC1F33C
:1051E000950F50E0551F629FF001729FBB27F00D95
:1051F000B11D639FAA27F00DB11DAA1F649F6627EA
:10520000B00DA11D661F829F2227B00DA11D621F38
:10521000739FB00DA11D621F839FA00D611D221FF2
:10522000749F3327A00D611D231F849F600D211DD6
:10523000822F762F6A2F11249F5750409AF0F1F059
:1052400088234AF0EE0FFF1FBB1F661F771F881FC2
:1052500091505040A9F79E3F510580F00C9445298C
:105260000C94D2285F3FE4F3983ED4F3869577956B
:105270006795B795F795E7959F5FC1F7FE2B880F68
:10528000911D9695879597F9089597F99F6780E8FE
:1052900070E060E008959FEF80EC089500240A9488
:1052A0001616170618060906089500240A94121601
:1052B0001306140605060895092E0394000C11F434
:1052C000882352F0BB0F40F4BF2B11F460FF04C0E1
:1052D0006F5F7F4F8F4F9F4F089597FB072E16F4F8
:1052E000009407D077FD09D00E94872907FC05D0DC
:1052F0003EF4909581959F4F0895709561957F4FED
:105300000895EE0FFF1F0590F491E02D0994AA1B5C
:10531000BB1B51E107C0AA1FBB1FA617B70710F0A0
:10532000A61BB70B881F991F5A95A9F780959095D2
:10533000BC01CD010895F999FECF92BD81BDF89AC7
:10534000992780B50895A8E1B0E042E050E00C94C0
:10535000C329262FF999FECF92BD81BDF89A0197F6
:1053600000B4021639F01FBA20BD0FB6F894FA9AAD
:10537000F99A0FBE08950196272F0E94AA290C942E
:10538000A929DC01CB01FC01F999FECF06C0F2BDD1
:10539000E1BDF89A319600B40D9241505040B8F7F3
:0653A0000895F894FFCF10
:1053A60062022808140A321E5321E521C0218A21EF
:1053B60056210137606162636465666790919293D6
:1053C60094959697C0C1C2C3C4C5303132333435C3
:1053D60036404D36393716EA15B4157B150E1527A6
:0653E600154015591500E9
:00000001FF
